{
	"project-01/contracts/contract.sol": {
		"GratitudeJournal": {
			"abi": [
				{
					"anonymous": false,
					"inputs": [
						{
							"indexed": true,
							"internalType": "address",
							"name": "author",
							"type": "address"
						},
						{
							"indexed": false,
							"internalType": "string",
							"name": "entry",
							"type": "string"
						},
						{
							"indexed": false,
							"internalType": "uint256",
							"name": "timestamp",
							"type": "uint256"
						}
					],
					"name": "GratitudeRecorded",
					"type": "event"
				},
				{
					"inputs": [
						{
							"internalType": "uint256",
							"name": "",
							"type": "uint256"
						}
					],
					"name": "entries",
					"outputs": [
						{
							"internalType": "address",
							"name": "author",
							"type": "address"
						},
						{
							"internalType": "string",
							"name": "entry",
							"type": "string"
						},
						{
							"internalType": "uint256",
							"name": "timestamp",
							"type": "uint256"
						}
					],
					"stateMutability": "view",
					"type": "function"
				},
				{
					"inputs": [
						{
							"internalType": "address",
							"name": "_author",
							"type": "address"
						}
					],
					"name": "getEntriesByAuthor",
					"outputs": [
						{
							"components": [
								{
									"internalType": "address",
									"name": "author",
									"type": "address"
								},
								{
									"internalType": "string",
									"name": "entry",
									"type": "string"
								},
								{
									"internalType": "uint256",
									"name": "timestamp",
									"type": "uint256"
								}
							],
							"internalType": "struct GratitudeJournal.GratitudeEntry[]",
							"name": "",
							"type": "tuple[]"
						}
					],
					"stateMutability": "view",
					"type": "function"
				},
				{
					"inputs": [
						{
							"internalType": "string",
							"name": "_entry",
							"type": "string"
						}
					],
					"name": "recordGratitude",
					"outputs": [],
					"stateMutability": "nonpayable",
					"type": "function"
				}
			],
			"devdoc": {
				"kind": "dev",
				"methods": {},
				"version": 1
			},
			"evm": {
				"assembly": "    /* \"project-01/contracts/contract.sol\":57:1928  contract GratitudeJournal {... */\n  mstore(0x40, 0x80)\n  callvalue\n  dup1\n  iszero\n  tag_1\n  jumpi\n  0x00\n  dup1\n  revert\ntag_1:\n  pop\n  dataSize(sub_0)\n  dup1\n  dataOffset(sub_0)\n  0x00\n  codecopy\n  0x00\n  return\nstop\n\nsub_0: assembly {\n        /* \"project-01/contracts/contract.sol\":57:1928  contract GratitudeJournal {... */\n      mstore(0x40, 0x80)\n      callvalue\n      dup1\n      iszero\n      tag_1\n      jumpi\n      0x00\n      dup1\n      revert\n    tag_1:\n      pop\n      jumpi(tag_2, lt(calldatasize, 0x04))\n      shr(0xe0, calldataload(0x00))\n      dup1\n      0x58bc35e6\n      eq\n      tag_3\n      jumpi\n      dup1\n      0xb30906d4\n      eq\n      tag_4\n      jumpi\n      dup1\n      0xbb87f9cd\n      eq\n      tag_5\n      jumpi\n    tag_2:\n      0x00\n      dup1\n      revert\n        /* \"project-01/contracts/contract.sol\":1147:1926  function getEntriesByAuthor(address _author) public view returns (GratitudeEntry[] memory) {... */\n    tag_3:\n      tag_6\n      0x04\n      dup1\n      calldatasize\n      sub\n      dup2\n      add\n      swap1\n      tag_7\n      swap2\n      swap1\n      tag_8\n      jump\t// in\n    tag_7:\n      tag_9\n      jump\t// in\n    tag_6:\n      mload(0x40)\n      tag_10\n      swap2\n      swap1\n      tag_11\n      jump\t// in\n    tag_10:\n      mload(0x40)\n      dup1\n      swap2\n      sub\n      swap1\n      return\n        /* \"project-01/contracts/contract.sol\":282:313  GratitudeEntry[] public entries */\n    tag_4:\n      tag_12\n      0x04\n      dup1\n      calldatasize\n      sub\n      dup2\n      add\n      swap1\n      tag_13\n      swap2\n      swap1\n      tag_14\n      jump\t// in\n    tag_13:\n      tag_15\n      jump\t// in\n    tag_12:\n      mload(0x40)\n      tag_16\n      swap4\n      swap3\n      swap2\n      swap1\n      tag_17\n      jump\t// in\n    tag_16:\n      mload(0x40)\n      dup1\n      swap2\n      sub\n      swap1\n      return\n        /* \"project-01/contracts/contract.sol\":508:1068  function recordGratitude(string memory _entry) public {... */\n    tag_5:\n      tag_18\n      0x04\n      dup1\n      calldatasize\n      sub\n      dup2\n      add\n      swap1\n      tag_19\n      swap2\n      swap1\n      tag_20\n      jump\t// in\n    tag_19:\n      tag_21\n      jump\t// in\n    tag_18:\n      stop\n        /* \"project-01/contracts/contract.sol\":1147:1926  function getEntriesByAuthor(address _author) public view returns (GratitudeEntry[] memory) {... */\n    tag_9:\n        /* \"project-01/contracts/contract.sol\":1213:1236  GratitudeEntry[] memory */\n      0x60\n        /* \"project-01/contracts/contract.sol\":1308:1345  GratitudeEntry[] memory authorEntries */\n      0x00\n        /* \"project-01/contracts/contract.sol\":1369:1376  entries */\n      dup1\n        /* \"project-01/contracts/contract.sol\":1369:1383  entries.length */\n      dup1\n      sload\n      swap1\n      pop\n        /* \"project-01/contracts/contract.sol\":1348:1384  new GratitudeEntry[](entries.length) */\n      0xffffffffffffffff\n      dup2\n      gt\n      iszero\n      tag_23\n      jumpi\n      tag_24\n      tag_25\n      jump\t// in\n    tag_24:\n    tag_23:\n      mload(0x40)\n      swap1\n      dup1\n      dup3\n      mstore\n      dup1\n      0x20\n      mul\n      0x20\n      add\n      dup3\n      add\n      0x40\n      mstore\n      dup1\n      iszero\n      tag_26\n      jumpi\n      dup2\n      0x20\n      add\n    tag_27:\n      tag_28\n      tag_29\n      jump\t// in\n    tag_28:\n      dup2\n      mstore\n      0x20\n      add\n      swap1\n      0x01\n      swap1\n      sub\n      swap1\n      dup2\n      tag_27\n      jumpi\n      swap1\n      pop\n    tag_26:\n      pop\n        /* \"project-01/contracts/contract.sol\":1308:1384  GratitudeEntry[] memory authorEntries = new GratitudeEntry[](entries.length) */\n      swap1\n      pop\n        /* \"project-01/contracts/contract.sol\":1394:1407  uint256 count */\n      0x00\n        /* \"project-01/contracts/contract.sol\":1482:1491  uint256 i */\n      dup1\n        /* \"project-01/contracts/contract.sol\":1477:1671  for (uint256 i = 0; i < entries.length; i++) {... */\n    tag_30:\n        /* \"project-01/contracts/contract.sol\":1501:1508  entries */\n      0x00\n        /* \"project-01/contracts/contract.sol\":1501:1515  entries.length */\n      dup1\n      sload\n      swap1\n      pop\n        /* \"project-01/contracts/contract.sol\":1497:1498  i */\n      dup2\n        /* \"project-01/contracts/contract.sol\":1497:1515  i < entries.length */\n      lt\n        /* \"project-01/contracts/contract.sol\":1477:1671  for (uint256 i = 0; i < entries.length; i++) {... */\n      iszero\n      tag_31\n      jumpi\n        /* \"project-01/contracts/contract.sol\":1561:1568  _author */\n      dup5\n        /* \"project-01/contracts/contract.sol\":1540:1568  entries[i].author == _author */\n      0xffffffffffffffffffffffffffffffffffffffff\n      and\n        /* \"project-01/contracts/contract.sol\":1540:1547  entries */\n      0x00\n        /* \"project-01/contracts/contract.sol\":1548:1549  i */\n      dup3\n        /* \"project-01/contracts/contract.sol\":1540:1550  entries[i] */\n      dup2\n      sload\n      dup2\n      lt\n      tag_33\n      jumpi\n      tag_34\n      tag_35\n      jump\t// in\n    tag_34:\n    tag_33:\n      swap1\n      0x00\n      mstore\n      keccak256(0x00, 0x20)\n      swap1\n      0x03\n      mul\n      add\n        /* \"project-01/contracts/contract.sol\":1540:1557  entries[i].author */\n      0x00\n      add\n      0x00\n      swap1\n      sload\n      swap1\n      0x0100\n      exp\n      swap1\n      div\n      0xffffffffffffffffffffffffffffffffffffffff\n      and\n        /* \"project-01/contracts/contract.sol\":1540:1568  entries[i].author == _author */\n      0xffffffffffffffffffffffffffffffffffffffff\n      and\n      sub\n        /* \"project-01/contracts/contract.sol\":1536:1661  if (entries[i].author == _author) {... */\n      tag_37\n      jumpi\n        /* \"project-01/contracts/contract.sol\":1611:1618  entries */\n      0x00\n        /* \"project-01/contracts/contract.sol\":1619:1620  i */\n      dup2\n        /* \"project-01/contracts/contract.sol\":1611:1621  entries[i] */\n      dup2\n      sload\n      dup2\n      lt\n      tag_38\n      jumpi\n      tag_39\n      tag_35\n      jump\t// in\n    tag_39:\n    tag_38:\n      swap1\n      0x00\n      mstore\n      keccak256(0x00, 0x20)\n      swap1\n      0x03\n      mul\n      add\n        /* \"project-01/contracts/contract.sol\":1588:1621  authorEntries[count] = entries[i] */\n      mload(0x40)\n      dup1\n      0x60\n      add\n      0x40\n      mstore\n      swap1\n      dup2\n      0x00\n      dup3\n      add\n      0x00\n      swap1\n      sload\n      swap1\n      0x0100\n      exp\n      swap1\n      div\n      0xffffffffffffffffffffffffffffffffffffffff\n      and\n      0xffffffffffffffffffffffffffffffffffffffff\n      and\n      0xffffffffffffffffffffffffffffffffffffffff\n      and\n      dup2\n      mstore\n      0x20\n      add\n      0x01\n      dup3\n      add\n      dup1\n      sload\n      tag_41\n      swap1\n      tag_42\n      jump\t// in\n    tag_41:\n      dup1\n      0x1f\n      add\n      0x20\n      dup1\n      swap2\n      div\n      mul\n      0x20\n      add\n      mload(0x40)\n      swap1\n      dup2\n      add\n      0x40\n      mstore\n      dup1\n      swap3\n      swap2\n      swap1\n      dup2\n      dup2\n      mstore\n      0x20\n      add\n      dup3\n      dup1\n      sload\n      tag_43\n      swap1\n      tag_42\n      jump\t// in\n    tag_43:\n      dup1\n      iszero\n      tag_44\n      jumpi\n      dup1\n      0x1f\n      lt\n      tag_45\n      jumpi\n      0x0100\n      dup1\n      dup4\n      sload\n      div\n      mul\n      dup4\n      mstore\n      swap2\n      0x20\n      add\n      swap2\n      jump(tag_44)\n    tag_45:\n      dup3\n      add\n      swap2\n      swap1\n      0x00\n      mstore\n      keccak256(0x00, 0x20)\n      swap1\n    tag_46:\n      dup2\n      sload\n      dup2\n      mstore\n      swap1\n      0x01\n      add\n      swap1\n      0x20\n      add\n      dup1\n      dup4\n      gt\n      tag_46\n      jumpi\n      dup3\n      swap1\n      sub\n      0x1f\n      and\n      dup3\n      add\n      swap2\n    tag_44:\n      pop\n      pop\n      pop\n      pop\n      pop\n      dup2\n      mstore\n      0x20\n      add\n      0x02\n      dup3\n      add\n      sload\n      dup2\n      mstore\n      pop\n      pop\n        /* \"project-01/contracts/contract.sol\":1588:1601  authorEntries */\n      dup4\n        /* \"project-01/contracts/contract.sol\":1602:1607  count */\n      dup4\n        /* \"project-01/contracts/contract.sol\":1588:1608  authorEntries[count] */\n      dup2\n      mload\n      dup2\n      lt\n      tag_47\n      jumpi\n      tag_48\n      tag_35\n      jump\t// in\n    tag_48:\n    tag_47:\n      0x20\n      mul\n      0x20\n      add\n      add\n        /* \"project-01/contracts/contract.sol\":1588:1621  authorEntries[count] = entries[i] */\n      dup2\n      swap1\n      mstore\n      pop\n        /* \"project-01/contracts/contract.sol\":1639:1646  count++ */\n      dup2\n      dup1\n      tag_49\n      swap1\n      tag_50\n      jump\t// in\n    tag_49:\n      swap3\n      pop\n      pop\n        /* \"project-01/contracts/contract.sol\":1536:1661  if (entries[i].author == _author) {... */\n    tag_37:\n        /* \"project-01/contracts/contract.sol\":1517:1520  i++ */\n      dup1\n      dup1\n      0x01\n      add\n      swap2\n      pop\n      pop\n        /* \"project-01/contracts/contract.sol\":1477:1671  for (uint256 i = 0; i < entries.length; i++) {... */\n      jump(tag_30)\n    tag_31:\n      pop\n        /* \"project-01/contracts/contract.sol\":1737:1767  GratitudeEntry[] memory result */\n      0x00\n        /* \"project-01/contracts/contract.sol\":1791:1796  count */\n      dup2\n        /* \"project-01/contracts/contract.sol\":1770:1797  new GratitudeEntry[](count) */\n      0xffffffffffffffff\n      dup2\n      gt\n      iszero\n      tag_51\n      jumpi\n      tag_52\n      tag_25\n      jump\t// in\n    tag_52:\n    tag_51:\n      mload(0x40)\n      swap1\n      dup1\n      dup3\n      mstore\n      dup1\n      0x20\n      mul\n      0x20\n      add\n      dup3\n      add\n      0x40\n      mstore\n      dup1\n      iszero\n      tag_53\n      jumpi\n      dup2\n      0x20\n      add\n    tag_54:\n      tag_55\n      tag_29\n      jump\t// in\n    tag_55:\n      dup2\n      mstore\n      0x20\n      add\n      swap1\n      0x01\n      swap1\n      sub\n      swap1\n      dup2\n      tag_54\n      jumpi\n      swap1\n      pop\n    tag_53:\n      pop\n        /* \"project-01/contracts/contract.sol\":1737:1797  GratitudeEntry[] memory result = new GratitudeEntry[](count) */\n      swap1\n      pop\n        /* \"project-01/contracts/contract.sol\":1812:1821  uint256 i */\n      0x00\n        /* \"project-01/contracts/contract.sol\":1807:1896  for (uint256 i = 0; i < count; i++) {... */\n    tag_56:\n        /* \"project-01/contracts/contract.sol\":1831:1836  count */\n      dup3\n        /* \"project-01/contracts/contract.sol\":1827:1828  i */\n      dup2\n        /* \"project-01/contracts/contract.sol\":1827:1836  i < count */\n      lt\n        /* \"project-01/contracts/contract.sol\":1807:1896  for (uint256 i = 0; i < count; i++) {... */\n      iszero\n      tag_57\n      jumpi\n        /* \"project-01/contracts/contract.sol\":1869:1882  authorEntries */\n      dup4\n        /* \"project-01/contracts/contract.sol\":1883:1884  i */\n      dup2\n        /* \"project-01/contracts/contract.sol\":1869:1885  authorEntries[i] */\n      dup2\n      mload\n      dup2\n      lt\n      tag_59\n      jumpi\n      tag_60\n      tag_35\n      jump\t// in\n    tag_60:\n    tag_59:\n      0x20\n      mul\n      0x20\n      add\n      add\n      mload\n        /* \"project-01/contracts/contract.sol\":1857:1863  result */\n      dup3\n        /* \"project-01/contracts/contract.sol\":1864:1865  i */\n      dup3\n        /* \"project-01/contracts/contract.sol\":1857:1866  result[i] */\n      dup2\n      mload\n      dup2\n      lt\n      tag_61\n      jumpi\n      tag_62\n      tag_35\n      jump\t// in\n    tag_62:\n    tag_61:\n      0x20\n      mul\n      0x20\n      add\n      add\n        /* \"project-01/contracts/contract.sol\":1857:1885  result[i] = authorEntries[i] */\n      dup2\n      swap1\n      mstore\n      pop\n        /* \"project-01/contracts/contract.sol\":1838:1841  i++ */\n      dup1\n      dup1\n      0x01\n      add\n      swap2\n      pop\n      pop\n        /* \"project-01/contracts/contract.sol\":1807:1896  for (uint256 i = 0; i < count; i++) {... */\n      jump(tag_56)\n    tag_57:\n      pop\n        /* \"project-01/contracts/contract.sol\":1913:1919  result */\n      dup1\n        /* \"project-01/contracts/contract.sol\":1906:1919  return result */\n      swap4\n      pop\n      pop\n      pop\n      pop\n        /* \"project-01/contracts/contract.sol\":1147:1926  function getEntriesByAuthor(address _author) public view returns (GratitudeEntry[] memory) {... */\n      swap2\n      swap1\n      pop\n      jump\t// out\n        /* \"project-01/contracts/contract.sol\":282:313  GratitudeEntry[] public entries */\n    tag_15:\n      0x00\n      dup2\n      dup2\n      sload\n      dup2\n      lt\n      tag_63\n      jumpi\n      0x00\n      dup1\n      revert\n    tag_63:\n      swap1\n      0x00\n      mstore\n      keccak256(0x00, 0x20)\n      swap1\n      0x03\n      mul\n      add\n      0x00\n      swap2\n      pop\n      swap1\n      pop\n      dup1\n      0x00\n      add\n      0x00\n      swap1\n      sload\n      swap1\n      0x0100\n      exp\n      swap1\n      div\n      0xffffffffffffffffffffffffffffffffffffffff\n      and\n      swap1\n      dup1\n      0x01\n      add\n      dup1\n      sload\n      tag_65\n      swap1\n      tag_42\n      jump\t// in\n    tag_65:\n      dup1\n      0x1f\n      add\n      0x20\n      dup1\n      swap2\n      div\n      mul\n      0x20\n      add\n      mload(0x40)\n      swap1\n      dup2\n      add\n      0x40\n      mstore\n      dup1\n      swap3\n      swap2\n      swap1\n      dup2\n      dup2\n      mstore\n      0x20\n      add\n      dup3\n      dup1\n      sload\n      tag_66\n      swap1\n      tag_42\n      jump\t// in\n    tag_66:\n      dup1\n      iszero\n      tag_67\n      jumpi\n      dup1\n      0x1f\n      lt\n      tag_68\n      jumpi\n      0x0100\n      dup1\n      dup4\n      sload\n      div\n      mul\n      dup4\n      mstore\n      swap2\n      0x20\n      add\n      swap2\n      jump(tag_67)\n    tag_68:\n      dup3\n      add\n      swap2\n      swap1\n      0x00\n      mstore\n      keccak256(0x00, 0x20)\n      swap1\n    tag_69:\n      dup2\n      sload\n      dup2\n      mstore\n      swap1\n      0x01\n      add\n      swap1\n      0x20\n      add\n      dup1\n      dup4\n      gt\n      tag_69\n      jumpi\n      dup3\n      swap1\n      sub\n      0x1f\n      and\n      dup3\n      add\n      swap2\n    tag_67:\n      pop\n      pop\n      pop\n      pop\n      pop\n      swap1\n      dup1\n      0x02\n      add\n      sload\n      swap1\n      pop\n      dup4\n      jump\t// out\n        /* \"project-01/contracts/contract.sol\":508:1068  function recordGratitude(string memory _entry) public {... */\n    tag_21:\n        /* \"project-01/contracts/contract.sol\":644:645  0 */\n      0x00\n        /* \"project-01/contracts/contract.sol\":627:633  _entry */\n      dup2\n        /* \"project-01/contracts/contract.sol\":621:641  bytes(_entry).length */\n      mload\n        /* \"project-01/contracts/contract.sol\":621:645  bytes(_entry).length > 0 */\n      gt\n        /* \"project-01/contracts/contract.sol\":613:681  require(bytes(_entry).length > 0, \"Gratitude entry cannot be empty\") */\n      tag_71\n      jumpi\n      mload(0x40)\n      0x08c379a000000000000000000000000000000000000000000000000000000000\n      dup2\n      mstore\n      0x04\n      add\n      tag_72\n      swap1\n      tag_73\n      jump\t// in\n    tag_72:\n      mload(0x40)\n      dup1\n      swap2\n      sub\n      swap1\n      revert\n    tag_71:\n        /* \"project-01/contracts/contract.sol\":754:784  GratitudeEntry memory newEntry */\n      0x00\n        /* \"project-01/contracts/contract.sol\":787:912  GratitudeEntry({... */\n      mload(0x40)\n      dup1\n      0x60\n      add\n      0x40\n      mstore\n      dup1\n        /* \"project-01/contracts/contract.sol\":824:834  msg.sender */\n      caller\n        /* \"project-01/contracts/contract.sol\":787:912  GratitudeEntry({... */\n      0xffffffffffffffffffffffffffffffffffffffff\n      and\n      dup2\n      mstore\n      0x20\n      add\n        /* \"project-01/contracts/contract.sol\":855:861  _entry */\n      dup4\n        /* \"project-01/contracts/contract.sol\":787:912  GratitudeEntry({... */\n      dup2\n      mstore\n      0x20\n      add\n        /* \"project-01/contracts/contract.sol\":886:901  block.timestamp */\n      timestamp\n        /* \"project-01/contracts/contract.sol\":787:912  GratitudeEntry({... */\n      dup2\n      mstore\n      pop\n        /* \"project-01/contracts/contract.sol\":754:912  GratitudeEntry memory newEntry = GratitudeEntry({... */\n      swap1\n      pop\n        /* \"project-01/contracts/contract.sol\":923:930  entries */\n      0x00\n        /* \"project-01/contracts/contract.sol\":936:944  newEntry */\n      dup2\n        /* \"project-01/contracts/contract.sol\":923:945  entries.push(newEntry) */\n      swap1\n      dup1\n      0x01\n      dup2\n      sload\n      add\n      dup1\n      dup3\n      sstore\n      dup1\n      swap2\n      pop\n      pop\n      0x01\n      swap1\n      sub\n      swap1\n      0x00\n      mstore\n      keccak256(0x00, 0x20)\n      swap1\n      0x03\n      mul\n      add\n      0x00\n      swap1\n      swap2\n      swap1\n      swap2\n      swap1\n      swap2\n      pop\n      0x00\n      dup3\n      add\n      mload\n      dup2\n      0x00\n      add\n      exp(0x0100, 0x00)\n      dup2\n      sload\n      dup2\n      0xffffffffffffffffffffffffffffffffffffffff\n      mul\n      not\n      and\n      swap1\n      dup4\n      0xffffffffffffffffffffffffffffffffffffffff\n      and\n      mul\n      or\n      swap1\n      sstore\n      pop\n      0x20\n      dup3\n      add\n      mload\n      dup2\n      0x01\n      add\n      swap1\n      dup2\n      tag_75\n      swap2\n      swap1\n      tag_76\n      jump\t// in\n    tag_75:\n      pop\n      0x40\n      dup3\n      add\n      mload\n      dup2\n      0x02\n      add\n      sstore\n      pop\n      pop\n        /* \"project-01/contracts/contract.sol\":1025:1035  msg.sender */\n      caller\n        /* \"project-01/contracts/contract.sol\":1007:1061  GratitudeRecorded(msg.sender, _entry, block.timestamp) */\n      0xffffffffffffffffffffffffffffffffffffffff\n      and\n      0xb3125cb8396bb6a03919ad52be03568b0b060ee1c1c5ebd50df4059b57c7ad9d\n        /* \"project-01/contracts/contract.sol\":1037:1043  _entry */\n      dup4\n        /* \"project-01/contracts/contract.sol\":1045:1060  block.timestamp */\n      timestamp\n        /* \"project-01/contracts/contract.sol\":1007:1061  GratitudeRecorded(msg.sender, _entry, block.timestamp) */\n      mload(0x40)\n      tag_77\n      swap3\n      swap2\n      swap1\n      tag_78\n      jump\t// in\n    tag_77:\n      mload(0x40)\n      dup1\n      swap2\n      sub\n      swap1\n      log2\n        /* \"project-01/contracts/contract.sol\":562:1068  {... */\n      pop\n        /* \"project-01/contracts/contract.sol\":508:1068  function recordGratitude(string memory _entry) public {... */\n      pop\n      jump\t// out\n    tag_29:\n      mload(0x40)\n      dup1\n      0x60\n      add\n      0x40\n      mstore\n      dup1\n      and(0xffffffffffffffffffffffffffffffffffffffff, 0x00)\n      dup2\n      mstore\n      0x20\n      add\n      0x60\n      dup2\n      mstore\n      0x20\n      add\n      0x00\n      dup2\n      mstore\n      pop\n      swap1\n      jump\t// out\n        /* \"#utility.yul\":7:82   */\n    tag_79:\n        /* \"#utility.yul\":40:46   */\n      0x00\n        /* \"#utility.yul\":73:75   */\n      0x40\n        /* \"#utility.yul\":67:76   */\n      mload\n        /* \"#utility.yul\":57:76   */\n      swap1\n      pop\n        /* \"#utility.yul\":7:82   */\n      swap1\n      jump\t// out\n        /* \"#utility.yul\":88:205   */\n    tag_80:\n        /* \"#utility.yul\":197:198   */\n      0x00\n        /* \"#utility.yul\":194:195   */\n      dup1\n        /* \"#utility.yul\":187:199   */\n      revert\n        /* \"#utility.yul\":211:328   */\n    tag_81:\n        /* \"#utility.yul\":320:321   */\n      0x00\n        /* \"#utility.yul\":317:318   */\n      dup1\n        /* \"#utility.yul\":310:322   */\n      revert\n        /* \"#utility.yul\":334:460   */\n    tag_82:\n        /* \"#utility.yul\":371:378   */\n      0x00\n        /* \"#utility.yul\":411:453   */\n      0xffffffffffffffffffffffffffffffffffffffff\n        /* \"#utility.yul\":404:409   */\n      dup3\n        /* \"#utility.yul\":400:454   */\n      and\n        /* \"#utility.yul\":389:454   */\n      swap1\n      pop\n        /* \"#utility.yul\":334:460   */\n      swap2\n      swap1\n      pop\n      jump\t// out\n        /* \"#utility.yul\":466:562   */\n    tag_83:\n        /* \"#utility.yul\":503:510   */\n      0x00\n        /* \"#utility.yul\":532:556   */\n      tag_140\n        /* \"#utility.yul\":550:555   */\n      dup3\n        /* \"#utility.yul\":532:556   */\n      tag_82\n      jump\t// in\n    tag_140:\n        /* \"#utility.yul\":521:556   */\n      swap1\n      pop\n        /* \"#utility.yul\":466:562   */\n      swap2\n      swap1\n      pop\n      jump\t// out\n        /* \"#utility.yul\":568:690   */\n    tag_84:\n        /* \"#utility.yul\":641:665   */\n      tag_142\n        /* \"#utility.yul\":659:664   */\n      dup2\n        /* \"#utility.yul\":641:665   */\n      tag_83\n      jump\t// in\n    tag_142:\n        /* \"#utility.yul\":634:639   */\n      dup2\n        /* \"#utility.yul\":631:666   */\n      eq\n        /* \"#utility.yul\":621:684   */\n      tag_143\n      jumpi\n        /* \"#utility.yul\":680:681   */\n      0x00\n        /* \"#utility.yul\":677:678   */\n      dup1\n        /* \"#utility.yul\":670:682   */\n      revert\n        /* \"#utility.yul\":621:684   */\n    tag_143:\n        /* \"#utility.yul\":568:690   */\n      pop\n      jump\t// out\n        /* \"#utility.yul\":696:835   */\n    tag_85:\n        /* \"#utility.yul\":742:747   */\n      0x00\n        /* \"#utility.yul\":780:786   */\n      dup2\n        /* \"#utility.yul\":767:787   */\n      calldataload\n        /* \"#utility.yul\":758:787   */\n      swap1\n      pop\n        /* \"#utility.yul\":796:829   */\n      tag_145\n        /* \"#utility.yul\":823:828   */\n      dup2\n        /* \"#utility.yul\":796:829   */\n      tag_84\n      jump\t// in\n    tag_145:\n        /* \"#utility.yul\":696:835   */\n      swap3\n      swap2\n      pop\n      pop\n      jump\t// out\n        /* \"#utility.yul\":841:1170   */\n    tag_8:\n        /* \"#utility.yul\":900:906   */\n      0x00\n        /* \"#utility.yul\":949:951   */\n      0x20\n        /* \"#utility.yul\":937:946   */\n      dup3\n        /* \"#utility.yul\":928:935   */\n      dup5\n        /* \"#utility.yul\":924:947   */\n      sub\n        /* \"#utility.yul\":920:952   */\n      slt\n        /* \"#utility.yul\":917:1036   */\n      iszero\n      tag_147\n      jumpi\n        /* \"#utility.yul\":955:1034   */\n      tag_148\n      tag_80\n      jump\t// in\n    tag_148:\n        /* \"#utility.yul\":917:1036   */\n    tag_147:\n        /* \"#utility.yul\":1075:1076   */\n      0x00\n        /* \"#utility.yul\":1100:1153   */\n      tag_149\n        /* \"#utility.yul\":1145:1152   */\n      dup5\n        /* \"#utility.yul\":1136:1142   */\n      dup3\n        /* \"#utility.yul\":1125:1134   */\n      dup6\n        /* \"#utility.yul\":1121:1143   */\n      add\n        /* \"#utility.yul\":1100:1153   */\n      tag_85\n      jump\t// in\n    tag_149:\n        /* \"#utility.yul\":1090:1153   */\n      swap2\n      pop\n        /* \"#utility.yul\":1046:1163   */\n      pop\n        /* \"#utility.yul\":841:1170   */\n      swap3\n      swap2\n      pop\n      pop\n      jump\t// out\n        /* \"#utility.yul\":1176:1319   */\n    tag_86:\n        /* \"#utility.yul\":1272:1278   */\n      0x00\n        /* \"#utility.yul\":1306:1311   */\n      dup2\n        /* \"#utility.yul\":1300:1312   */\n      mload\n        /* \"#utility.yul\":1290:1312   */\n      swap1\n      pop\n        /* \"#utility.yul\":1176:1319   */\n      swap2\n      swap1\n      pop\n      jump\t// out\n        /* \"#utility.yul\":1325:1538   */\n    tag_87:\n        /* \"#utility.yul\":1453:1464   */\n      0x00\n        /* \"#utility.yul\":1487:1493   */\n      dup3\n        /* \"#utility.yul\":1482:1485   */\n      dup3\n        /* \"#utility.yul\":1475:1494   */\n      mstore\n        /* \"#utility.yul\":1527:1531   */\n      0x20\n        /* \"#utility.yul\":1522:1525   */\n      dup3\n        /* \"#utility.yul\":1518:1532   */\n      add\n        /* \"#utility.yul\":1503:1532   */\n      swap1\n      pop\n        /* \"#utility.yul\":1325:1538   */\n      swap3\n      swap2\n      pop\n      pop\n      jump\t// out\n        /* \"#utility.yul\":1544:1705   */\n    tag_88:\n        /* \"#utility.yul\":1640:1644   */\n      0x00\n        /* \"#utility.yul\":1663:1666   */\n      dup2\n        /* \"#utility.yul\":1655:1666   */\n      swap1\n      pop\n        /* \"#utility.yul\":1693:1697   */\n      0x20\n        /* \"#utility.yul\":1688:1691   */\n      dup3\n        /* \"#utility.yul\":1684:1698   */\n      add\n        /* \"#utility.yul\":1676:1698   */\n      swap1\n      pop\n        /* \"#utility.yul\":1544:1705   */\n      swap2\n      swap1\n      pop\n      jump\t// out\n        /* \"#utility.yul\":1711:1819   */\n    tag_89:\n        /* \"#utility.yul\":1788:1812   */\n      tag_154\n        /* \"#utility.yul\":1806:1811   */\n      dup2\n        /* \"#utility.yul\":1788:1812   */\n      tag_83\n      jump\t// in\n    tag_154:\n        /* \"#utility.yul\":1783:1786   */\n      dup3\n        /* \"#utility.yul\":1776:1813   */\n      mstore\n        /* \"#utility.yul\":1711:1819   */\n      pop\n      pop\n      jump\t// out\n        /* \"#utility.yul\":1825:1924   */\n    tag_90:\n        /* \"#utility.yul\":1877:1883   */\n      0x00\n        /* \"#utility.yul\":1911:1916   */\n      dup2\n        /* \"#utility.yul\":1905:1917   */\n      mload\n        /* \"#utility.yul\":1895:1917   */\n      swap1\n      pop\n        /* \"#utility.yul\":1825:1924   */\n      swap2\n      swap1\n      pop\n      jump\t// out\n        /* \"#utility.yul\":1930:2089   */\n    tag_91:\n        /* \"#utility.yul\":2004:2015   */\n      0x00\n        /* \"#utility.yul\":2038:2044   */\n      dup3\n        /* \"#utility.yul\":2033:2036   */\n      dup3\n        /* \"#utility.yul\":2026:2045   */\n      mstore\n        /* \"#utility.yul\":2078:2082   */\n      0x20\n        /* \"#utility.yul\":2073:2076   */\n      dup3\n        /* \"#utility.yul\":2069:2083   */\n      add\n        /* \"#utility.yul\":2054:2083   */\n      swap1\n      pop\n        /* \"#utility.yul\":1930:2089   */\n      swap3\n      swap2\n      pop\n      pop\n      jump\t// out\n        /* \"#utility.yul\":2095:2234   */\n    tag_92:\n        /* \"#utility.yul\":2184:2190   */\n      dup3\n        /* \"#utility.yul\":2179:2182   */\n      dup2\n        /* \"#utility.yul\":2174:2177   */\n      dup4\n        /* \"#utility.yul\":2168:2191   */\n      mcopy\n        /* \"#utility.yul\":2225:2226   */\n      0x00\n        /* \"#utility.yul\":2216:2222   */\n      dup4\n        /* \"#utility.yul\":2211:2214   */\n      dup4\n        /* \"#utility.yul\":2207:2223   */\n      add\n        /* \"#utility.yul\":2200:2227   */\n      mstore\n        /* \"#utility.yul\":2095:2234   */\n      pop\n      pop\n      pop\n      jump\t// out\n        /* \"#utility.yul\":2240:2342   */\n    tag_93:\n        /* \"#utility.yul\":2281:2287   */\n      0x00\n        /* \"#utility.yul\":2332:2334   */\n      0x1f\n        /* \"#utility.yul\":2328:2335   */\n      not\n        /* \"#utility.yul\":2323:2325   */\n      0x1f\n        /* \"#utility.yul\":2316:2321   */\n      dup4\n        /* \"#utility.yul\":2312:2326   */\n      add\n        /* \"#utility.yul\":2308:2336   */\n      and\n        /* \"#utility.yul\":2298:2336   */\n      swap1\n      pop\n        /* \"#utility.yul\":2240:2342   */\n      swap2\n      swap1\n      pop\n      jump\t// out\n        /* \"#utility.yul\":2348:2705   */\n    tag_94:\n        /* \"#utility.yul\":2426:2429   */\n      0x00\n        /* \"#utility.yul\":2454:2493   */\n      tag_160\n        /* \"#utility.yul\":2487:2492   */\n      dup3\n        /* \"#utility.yul\":2454:2493   */\n      tag_90\n      jump\t// in\n    tag_160:\n        /* \"#utility.yul\":2509:2570   */\n      tag_161\n        /* \"#utility.yul\":2563:2569   */\n      dup2\n        /* \"#utility.yul\":2558:2561   */\n      dup6\n        /* \"#utility.yul\":2509:2570   */\n      tag_91\n      jump\t// in\n    tag_161:\n        /* \"#utility.yul\":2502:2570   */\n      swap4\n      pop\n        /* \"#utility.yul\":2579:2644   */\n      tag_162\n        /* \"#utility.yul\":2637:2643   */\n      dup2\n        /* \"#utility.yul\":2632:2635   */\n      dup6\n        /* \"#utility.yul\":2625:2629   */\n      0x20\n        /* \"#utility.yul\":2618:2623   */\n      dup7\n        /* \"#utility.yul\":2614:2630   */\n      add\n        /* \"#utility.yul\":2579:2644   */\n      tag_92\n      jump\t// in\n    tag_162:\n        /* \"#utility.yul\":2669:2698   */\n      tag_163\n        /* \"#utility.yul\":2691:2697   */\n      dup2\n        /* \"#utility.yul\":2669:2698   */\n      tag_93\n      jump\t// in\n    tag_163:\n        /* \"#utility.yul\":2664:2667   */\n      dup5\n        /* \"#utility.yul\":2660:2699   */\n      add\n        /* \"#utility.yul\":2653:2699   */\n      swap2\n      pop\n        /* \"#utility.yul\":2430:2705   */\n      pop\n        /* \"#utility.yul\":2348:2705   */\n      swap3\n      swap2\n      pop\n      pop\n      jump\t// out\n        /* \"#utility.yul\":2711:2788   */\n    tag_95:\n        /* \"#utility.yul\":2748:2755   */\n      0x00\n        /* \"#utility.yul\":2777:2782   */\n      dup2\n        /* \"#utility.yul\":2766:2782   */\n      swap1\n      pop\n        /* \"#utility.yul\":2711:2788   */\n      swap2\n      swap1\n      pop\n      jump\t// out\n        /* \"#utility.yul\":2794:2902   */\n    tag_96:\n        /* \"#utility.yul\":2871:2895   */\n      tag_166\n        /* \"#utility.yul\":2889:2894   */\n      dup2\n        /* \"#utility.yul\":2871:2895   */\n      tag_95\n      jump\t// in\n    tag_166:\n        /* \"#utility.yul\":2866:2869   */\n      dup3\n        /* \"#utility.yul\":2859:2896   */\n      mstore\n        /* \"#utility.yul\":2794:2902   */\n      pop\n      pop\n      jump\t// out\n        /* \"#utility.yul\":2996:3782   */\n    tag_97:\n        /* \"#utility.yul\":3113:3116   */\n      0x00\n        /* \"#utility.yul\":3149:3153   */\n      0x60\n        /* \"#utility.yul\":3144:3147   */\n      dup4\n        /* \"#utility.yul\":3140:3154   */\n      add\n        /* \"#utility.yul\":3238:3242   */\n      0x00\n        /* \"#utility.yul\":3231:3236   */\n      dup4\n        /* \"#utility.yul\":3227:3243   */\n      add\n        /* \"#utility.yul\":3221:3244   */\n      mload\n        /* \"#utility.yul\":3257:3320   */\n      tag_168\n        /* \"#utility.yul\":3314:3318   */\n      0x00\n        /* \"#utility.yul\":3309:3312   */\n      dup7\n        /* \"#utility.yul\":3305:3319   */\n      add\n        /* \"#utility.yul\":3291:3303   */\n      dup3\n        /* \"#utility.yul\":3257:3320   */\n      tag_89\n      jump\t// in\n    tag_168:\n        /* \"#utility.yul\":3164:3330   */\n      pop\n        /* \"#utility.yul\":3413:3417   */\n      0x20\n        /* \"#utility.yul\":3406:3411   */\n      dup4\n        /* \"#utility.yul\":3402:3418   */\n      add\n        /* \"#utility.yul\":3396:3419   */\n      mload\n        /* \"#utility.yul\":3466:3469   */\n      dup5\n        /* \"#utility.yul\":3460:3464   */\n      dup3\n        /* \"#utility.yul\":3456:3470   */\n      sub\n        /* \"#utility.yul\":3449:3453   */\n      0x20\n        /* \"#utility.yul\":3444:3447   */\n      dup7\n        /* \"#utility.yul\":3440:3454   */\n      add\n        /* \"#utility.yul\":3433:3471   */\n      mstore\n        /* \"#utility.yul\":3492:3565   */\n      tag_169\n        /* \"#utility.yul\":3560:3564   */\n      dup3\n        /* \"#utility.yul\":3546:3558   */\n      dup3\n        /* \"#utility.yul\":3492:3565   */\n      tag_94\n      jump\t// in\n    tag_169:\n        /* \"#utility.yul\":3484:3565   */\n      swap2\n      pop\n        /* \"#utility.yul\":3340:3576   */\n      pop\n        /* \"#utility.yul\":3663:3667   */\n      0x40\n        /* \"#utility.yul\":3656:3661   */\n      dup4\n        /* \"#utility.yul\":3652:3668   */\n      add\n        /* \"#utility.yul\":3646:3669   */\n      mload\n        /* \"#utility.yul\":3682:3745   */\n      tag_170\n        /* \"#utility.yul\":3739:3743   */\n      0x40\n        /* \"#utility.yul\":3734:3737   */\n      dup7\n        /* \"#utility.yul\":3730:3744   */\n      add\n        /* \"#utility.yul\":3716:3728   */\n      dup3\n        /* \"#utility.yul\":3682:3745   */\n      tag_96\n      jump\t// in\n    tag_170:\n        /* \"#utility.yul\":3586:3755   */\n      pop\n        /* \"#utility.yul\":3772:3776   */\n      dup1\n        /* \"#utility.yul\":3765:3776   */\n      swap2\n      pop\n        /* \"#utility.yul\":3118:3782   */\n      pop\n        /* \"#utility.yul\":2996:3782   */\n      swap3\n      swap2\n      pop\n      pop\n      jump\t// out\n        /* \"#utility.yul\":3788:4060   */\n    tag_98:\n        /* \"#utility.yul\":3915:3925   */\n      0x00\n        /* \"#utility.yul\":3950:4054   */\n      tag_172\n        /* \"#utility.yul\":4050:4053   */\n      dup4\n        /* \"#utility.yul\":4042:4048   */\n      dup4\n        /* \"#utility.yul\":3950:4054   */\n      tag_97\n      jump\t// in\n    tag_172:\n        /* \"#utility.yul\":3936:4054   */\n      swap1\n      pop\n        /* \"#utility.yul\":3788:4060   */\n      swap3\n      swap2\n      pop\n      pop\n      jump\t// out\n        /* \"#utility.yul\":4066:4208   */\n    tag_99:\n        /* \"#utility.yul\":4165:4169   */\n      0x00\n        /* \"#utility.yul\":4197:4201   */\n      0x20\n        /* \"#utility.yul\":4192:4195   */\n      dup3\n        /* \"#utility.yul\":4188:4202   */\n      add\n        /* \"#utility.yul\":4180:4202   */\n      swap1\n      pop\n        /* \"#utility.yul\":4066:4208   */\n      swap2\n      swap1\n      pop\n      jump\t// out\n        /* \"#utility.yul\":4306:5449   */\n    tag_100:\n        /* \"#utility.yul\":4483:4486   */\n      0x00\n        /* \"#utility.yul\":4512:4595   */\n      tag_175\n        /* \"#utility.yul\":4589:4594   */\n      dup3\n        /* \"#utility.yul\":4512:4595   */\n      tag_86\n      jump\t// in\n    tag_175:\n        /* \"#utility.yul\":4611:4726   */\n      tag_176\n        /* \"#utility.yul\":4719:4725   */\n      dup2\n        /* \"#utility.yul\":4714:4717   */\n      dup6\n        /* \"#utility.yul\":4611:4726   */\n      tag_87\n      jump\t// in\n    tag_176:\n        /* \"#utility.yul\":4604:4726   */\n      swap4\n      pop\n        /* \"#utility.yul\":4752:4755   */\n      dup4\n        /* \"#utility.yul\":4797:4801   */\n      0x20\n        /* \"#utility.yul\":4789:4795   */\n      dup3\n        /* \"#utility.yul\":4785:4802   */\n      mul\n        /* \"#utility.yul\":4780:4783   */\n      dup6\n        /* \"#utility.yul\":4776:4803   */\n      add\n        /* \"#utility.yul\":4827:4912   */\n      tag_177\n        /* \"#utility.yul\":4906:4911   */\n      dup6\n        /* \"#utility.yul\":4827:4912   */\n      tag_88\n      jump\t// in\n    tag_177:\n        /* \"#utility.yul\":4935:4942   */\n      dup1\n        /* \"#utility.yul\":4966:4967   */\n      0x00\n        /* \"#utility.yul\":4951:5404   */\n    tag_178:\n        /* \"#utility.yul\":4976:4982   */\n      dup6\n        /* \"#utility.yul\":4973:4974   */\n      dup2\n        /* \"#utility.yul\":4970:4983   */\n      lt\n        /* \"#utility.yul\":4951:5404   */\n      iszero\n      tag_180\n      jumpi\n        /* \"#utility.yul\":5047:5056   */\n      dup5\n        /* \"#utility.yul\":5041:5045   */\n      dup5\n        /* \"#utility.yul\":5037:5057   */\n      sub\n        /* \"#utility.yul\":5032:5035   */\n      dup10\n        /* \"#utility.yul\":5025:5058   */\n      mstore\n        /* \"#utility.yul\":5098:5104   */\n      dup2\n        /* \"#utility.yul\":5092:5105   */\n      mload\n        /* \"#utility.yul\":5126:5248   */\n      tag_181\n        /* \"#utility.yul\":5243:5247   */\n      dup6\n        /* \"#utility.yul\":5228:5241   */\n      dup3\n        /* \"#utility.yul\":5126:5248   */\n      tag_98\n      jump\t// in\n    tag_181:\n        /* \"#utility.yul\":5118:5248   */\n      swap5\n      pop\n        /* \"#utility.yul\":5271:5360   */\n      tag_182\n        /* \"#utility.yul\":5353:5359   */\n      dup4\n        /* \"#utility.yul\":5271:5360   */\n      tag_99\n      jump\t// in\n    tag_182:\n        /* \"#utility.yul\":5261:5360   */\n      swap3\n      pop\n        /* \"#utility.yul\":5389:5393   */\n      0x20\n        /* \"#utility.yul\":5384:5387   */\n      dup11\n        /* \"#utility.yul\":5380:5394   */\n      add\n        /* \"#utility.yul\":5373:5394   */\n      swap10\n      pop\n        /* \"#utility.yul\":5011:5404   */\n      pop\n        /* \"#utility.yul\":4998:4999   */\n      0x01\n        /* \"#utility.yul\":4995:4996   */\n      dup2\n        /* \"#utility.yul\":4991:5000   */\n      add\n        /* \"#utility.yul\":4986:5000   */\n      swap1\n      pop\n        /* \"#utility.yul\":4951:5404   */\n      jump(tag_178)\n    tag_180:\n        /* \"#utility.yul\":4955:4969   */\n      pop\n        /* \"#utility.yul\":5420:5424   */\n      dup3\n        /* \"#utility.yul\":5413:5424   */\n      swap8\n      pop\n        /* \"#utility.yul\":5440:5443   */\n      dup8\n        /* \"#utility.yul\":5433:5443   */\n      swap6\n      pop\n        /* \"#utility.yul\":4488:5449   */\n      pop\n      pop\n      pop\n      pop\n      pop\n        /* \"#utility.yul\":4306:5449   */\n      swap3\n      swap2\n      pop\n      pop\n      jump\t// out\n        /* \"#utility.yul\":5455:5944   */\n    tag_11:\n        /* \"#utility.yul\":5656:5660   */\n      0x00\n        /* \"#utility.yul\":5694:5696   */\n      0x20\n        /* \"#utility.yul\":5683:5692   */\n      dup3\n        /* \"#utility.yul\":5679:5697   */\n      add\n        /* \"#utility.yul\":5671:5697   */\n      swap1\n      pop\n        /* \"#utility.yul\":5743:5752   */\n      dup2\n        /* \"#utility.yul\":5737:5741   */\n      dup2\n        /* \"#utility.yul\":5733:5753   */\n      sub\n        /* \"#utility.yul\":5729:5730   */\n      0x00\n        /* \"#utility.yul\":5718:5727   */\n      dup4\n        /* \"#utility.yul\":5714:5731   */\n      add\n        /* \"#utility.yul\":5707:5754   */\n      mstore\n        /* \"#utility.yul\":5771:5937   */\n      tag_184\n        /* \"#utility.yul\":5932:5936   */\n      dup2\n        /* \"#utility.yul\":5923:5929   */\n      dup5\n        /* \"#utility.yul\":5771:5937   */\n      tag_100\n      jump\t// in\n    tag_184:\n        /* \"#utility.yul\":5763:5937   */\n      swap1\n      pop\n        /* \"#utility.yul\":5455:5944   */\n      swap3\n      swap2\n      pop\n      pop\n      jump\t// out\n        /* \"#utility.yul\":5950:6072   */\n    tag_101:\n        /* \"#utility.yul\":6023:6047   */\n      tag_186\n        /* \"#utility.yul\":6041:6046   */\n      dup2\n        /* \"#utility.yul\":6023:6047   */\n      tag_95\n      jump\t// in\n    tag_186:\n        /* \"#utility.yul\":6016:6021   */\n      dup2\n        /* \"#utility.yul\":6013:6048   */\n      eq\n        /* \"#utility.yul\":6003:6066   */\n      tag_187\n      jumpi\n        /* \"#utility.yul\":6062:6063   */\n      0x00\n        /* \"#utility.yul\":6059:6060   */\n      dup1\n        /* \"#utility.yul\":6052:6064   */\n      revert\n        /* \"#utility.yul\":6003:6066   */\n    tag_187:\n        /* \"#utility.yul\":5950:6072   */\n      pop\n      jump\t// out\n        /* \"#utility.yul\":6078:6217   */\n    tag_102:\n        /* \"#utility.yul\":6124:6129   */\n      0x00\n        /* \"#utility.yul\":6162:6168   */\n      dup2\n        /* \"#utility.yul\":6149:6169   */\n      calldataload\n        /* \"#utility.yul\":6140:6169   */\n      swap1\n      pop\n        /* \"#utility.yul\":6178:6211   */\n      tag_189\n        /* \"#utility.yul\":6205:6210   */\n      dup2\n        /* \"#utility.yul\":6178:6211   */\n      tag_101\n      jump\t// in\n    tag_189:\n        /* \"#utility.yul\":6078:6217   */\n      swap3\n      swap2\n      pop\n      pop\n      jump\t// out\n        /* \"#utility.yul\":6223:6552   */\n    tag_14:\n        /* \"#utility.yul\":6282:6288   */\n      0x00\n        /* \"#utility.yul\":6331:6333   */\n      0x20\n        /* \"#utility.yul\":6319:6328   */\n      dup3\n        /* \"#utility.yul\":6310:6317   */\n      dup5\n        /* \"#utility.yul\":6306:6329   */\n      sub\n        /* \"#utility.yul\":6302:6334   */\n      slt\n        /* \"#utility.yul\":6299:6418   */\n      iszero\n      tag_191\n      jumpi\n        /* \"#utility.yul\":6337:6416   */\n      tag_192\n      tag_80\n      jump\t// in\n    tag_192:\n        /* \"#utility.yul\":6299:6418   */\n    tag_191:\n        /* \"#utility.yul\":6457:6458   */\n      0x00\n        /* \"#utility.yul\":6482:6535   */\n      tag_193\n        /* \"#utility.yul\":6527:6534   */\n      dup5\n        /* \"#utility.yul\":6518:6524   */\n      dup3\n        /* \"#utility.yul\":6507:6516   */\n      dup6\n        /* \"#utility.yul\":6503:6525   */\n      add\n        /* \"#utility.yul\":6482:6535   */\n      tag_102\n      jump\t// in\n    tag_193:\n        /* \"#utility.yul\":6472:6535   */\n      swap2\n      pop\n        /* \"#utility.yul\":6428:6545   */\n      pop\n        /* \"#utility.yul\":6223:6552   */\n      swap3\n      swap2\n      pop\n      pop\n      jump\t// out\n        /* \"#utility.yul\":6558:6676   */\n    tag_103:\n        /* \"#utility.yul\":6645:6669   */\n      tag_195\n        /* \"#utility.yul\":6663:6668   */\n      dup2\n        /* \"#utility.yul\":6645:6669   */\n      tag_83\n      jump\t// in\n    tag_195:\n        /* \"#utility.yul\":6640:6643   */\n      dup3\n        /* \"#utility.yul\":6633:6670   */\n      mstore\n        /* \"#utility.yul\":6558:6676   */\n      pop\n      pop\n      jump\t// out\n        /* \"#utility.yul\":6682:6851   */\n    tag_104:\n        /* \"#utility.yul\":6766:6777   */\n      0x00\n        /* \"#utility.yul\":6800:6806   */\n      dup3\n        /* \"#utility.yul\":6795:6798   */\n      dup3\n        /* \"#utility.yul\":6788:6807   */\n      mstore\n        /* \"#utility.yul\":6840:6844   */\n      0x20\n        /* \"#utility.yul\":6835:6838   */\n      dup3\n        /* \"#utility.yul\":6831:6845   */\n      add\n        /* \"#utility.yul\":6816:6845   */\n      swap1\n      pop\n        /* \"#utility.yul\":6682:6851   */\n      swap3\n      swap2\n      pop\n      pop\n      jump\t// out\n        /* \"#utility.yul\":6857:7234   */\n    tag_105:\n        /* \"#utility.yul\":6945:6948   */\n      0x00\n        /* \"#utility.yul\":6973:7012   */\n      tag_198\n        /* \"#utility.yul\":7006:7011   */\n      dup3\n        /* \"#utility.yul\":6973:7012   */\n      tag_90\n      jump\t// in\n    tag_198:\n        /* \"#utility.yul\":7028:7099   */\n      tag_199\n        /* \"#utility.yul\":7092:7098   */\n      dup2\n        /* \"#utility.yul\":7087:7090   */\n      dup6\n        /* \"#utility.yul\":7028:7099   */\n      tag_104\n      jump\t// in\n    tag_199:\n        /* \"#utility.yul\":7021:7099   */\n      swap4\n      pop\n        /* \"#utility.yul\":7108:7173   */\n      tag_200\n        /* \"#utility.yul\":7166:7172   */\n      dup2\n        /* \"#utility.yul\":7161:7164   */\n      dup6\n        /* \"#utility.yul\":7154:7158   */\n      0x20\n        /* \"#utility.yul\":7147:7152   */\n      dup7\n        /* \"#utility.yul\":7143:7159   */\n      add\n        /* \"#utility.yul\":7108:7173   */\n      tag_92\n      jump\t// in\n    tag_200:\n        /* \"#utility.yul\":7198:7227   */\n      tag_201\n        /* \"#utility.yul\":7220:7226   */\n      dup2\n        /* \"#utility.yul\":7198:7227   */\n      tag_93\n      jump\t// in\n    tag_201:\n        /* \"#utility.yul\":7193:7196   */\n      dup5\n        /* \"#utility.yul\":7189:7228   */\n      add\n        /* \"#utility.yul\":7182:7228   */\n      swap2\n      pop\n        /* \"#utility.yul\":6949:7234   */\n      pop\n        /* \"#utility.yul\":6857:7234   */\n      swap3\n      swap2\n      pop\n      pop\n      jump\t// out\n        /* \"#utility.yul\":7240:7358   */\n    tag_106:\n        /* \"#utility.yul\":7327:7351   */\n      tag_203\n        /* \"#utility.yul\":7345:7350   */\n      dup2\n        /* \"#utility.yul\":7327:7351   */\n      tag_95\n      jump\t// in\n    tag_203:\n        /* \"#utility.yul\":7322:7325   */\n      dup3\n        /* \"#utility.yul\":7315:7352   */\n      mstore\n        /* \"#utility.yul\":7240:7358   */\n      pop\n      pop\n      jump\t// out\n        /* \"#utility.yul\":7364:7897   */\n    tag_17:\n        /* \"#utility.yul\":7533:7537   */\n      0x00\n        /* \"#utility.yul\":7571:7573   */\n      0x60\n        /* \"#utility.yul\":7560:7569   */\n      dup3\n        /* \"#utility.yul\":7556:7574   */\n      add\n        /* \"#utility.yul\":7548:7574   */\n      swap1\n      pop\n        /* \"#utility.yul\":7584:7655   */\n      tag_205\n        /* \"#utility.yul\":7652:7653   */\n      0x00\n        /* \"#utility.yul\":7641:7650   */\n      dup4\n        /* \"#utility.yul\":7637:7654   */\n      add\n        /* \"#utility.yul\":7628:7634   */\n      dup7\n        /* \"#utility.yul\":7584:7655   */\n      tag_103\n      jump\t// in\n    tag_205:\n        /* \"#utility.yul\":7702:7711   */\n      dup2\n        /* \"#utility.yul\":7696:7700   */\n      dup2\n        /* \"#utility.yul\":7692:7712   */\n      sub\n        /* \"#utility.yul\":7687:7689   */\n      0x20\n        /* \"#utility.yul\":7676:7685   */\n      dup4\n        /* \"#utility.yul\":7672:7690   */\n      add\n        /* \"#utility.yul\":7665:7713   */\n      mstore\n        /* \"#utility.yul\":7730:7808   */\n      tag_206\n        /* \"#utility.yul\":7803:7807   */\n      dup2\n        /* \"#utility.yul\":7794:7800   */\n      dup6\n        /* \"#utility.yul\":7730:7808   */\n      tag_105\n      jump\t// in\n    tag_206:\n        /* \"#utility.yul\":7722:7808   */\n      swap1\n      pop\n        /* \"#utility.yul\":7818:7890   */\n      tag_207\n        /* \"#utility.yul\":7886:7888   */\n      0x40\n        /* \"#utility.yul\":7875:7884   */\n      dup4\n        /* \"#utility.yul\":7871:7889   */\n      add\n        /* \"#utility.yul\":7862:7868   */\n      dup5\n        /* \"#utility.yul\":7818:7890   */\n      tag_106\n      jump\t// in\n    tag_207:\n        /* \"#utility.yul\":7364:7897   */\n      swap5\n      swap4\n      pop\n      pop\n      pop\n      pop\n      jump\t// out\n        /* \"#utility.yul\":7903:8020   */\n    tag_107:\n        /* \"#utility.yul\":8012:8013   */\n      0x00\n        /* \"#utility.yul\":8009:8010   */\n      dup1\n        /* \"#utility.yul\":8002:8014   */\n      revert\n        /* \"#utility.yul\":8026:8143   */\n    tag_108:\n        /* \"#utility.yul\":8135:8136   */\n      0x00\n        /* \"#utility.yul\":8132:8133   */\n      dup1\n        /* \"#utility.yul\":8125:8137   */\n      revert\n        /* \"#utility.yul\":8149:8329   */\n    tag_25:\n        /* \"#utility.yul\":8197:8274   */\n      0x4e487b7100000000000000000000000000000000000000000000000000000000\n        /* \"#utility.yul\":8194:8195   */\n      0x00\n        /* \"#utility.yul\":8187:8275   */\n      mstore\n        /* \"#utility.yul\":8294:8298   */\n      0x41\n        /* \"#utility.yul\":8291:8292   */\n      0x04\n        /* \"#utility.yul\":8284:8299   */\n      mstore\n        /* \"#utility.yul\":8318:8322   */\n      0x24\n        /* \"#utility.yul\":8315:8316   */\n      0x00\n        /* \"#utility.yul\":8308:8323   */\n      revert\n        /* \"#utility.yul\":8335:8616   */\n    tag_109:\n        /* \"#utility.yul\":8418:8445   */\n      tag_212\n        /* \"#utility.yul\":8440:8444   */\n      dup3\n        /* \"#utility.yul\":8418:8445   */\n      tag_93\n      jump\t// in\n    tag_212:\n        /* \"#utility.yul\":8410:8416   */\n      dup2\n        /* \"#utility.yul\":8406:8446   */\n      add\n        /* \"#utility.yul\":8548:8554   */\n      dup2\n        /* \"#utility.yul\":8536:8546   */\n      dup2\n        /* \"#utility.yul\":8533:8555   */\n      lt\n        /* \"#utility.yul\":8512:8530   */\n      0xffffffffffffffff\n        /* \"#utility.yul\":8500:8510   */\n      dup3\n        /* \"#utility.yul\":8497:8531   */\n      gt\n        /* \"#utility.yul\":8494:8556   */\n      or\n        /* \"#utility.yul\":8491:8579   */\n      iszero\n      tag_213\n      jumpi\n        /* \"#utility.yul\":8559:8577   */\n      tag_214\n      tag_25\n      jump\t// in\n    tag_214:\n        /* \"#utility.yul\":8491:8579   */\n    tag_213:\n        /* \"#utility.yul\":8599:8609   */\n      dup1\n        /* \"#utility.yul\":8595:8597   */\n      0x40\n        /* \"#utility.yul\":8588:8610   */\n      mstore\n        /* \"#utility.yul\":8378:8616   */\n      pop\n        /* \"#utility.yul\":8335:8616   */\n      pop\n      pop\n      jump\t// out\n        /* \"#utility.yul\":8622:8751   */\n    tag_110:\n        /* \"#utility.yul\":8656:8662   */\n      0x00\n        /* \"#utility.yul\":8683:8703   */\n      tag_216\n      tag_79\n      jump\t// in\n    tag_216:\n        /* \"#utility.yul\":8673:8703   */\n      swap1\n      pop\n        /* \"#utility.yul\":8712:8745   */\n      tag_217\n        /* \"#utility.yul\":8740:8744   */\n      dup3\n        /* \"#utility.yul\":8732:8738   */\n      dup3\n        /* \"#utility.yul\":8712:8745   */\n      tag_109\n      jump\t// in\n    tag_217:\n        /* \"#utility.yul\":8622:8751   */\n      swap2\n      swap1\n      pop\n      jump\t// out\n        /* \"#utility.yul\":8757:9065   */\n    tag_111:\n        /* \"#utility.yul\":8819:8823   */\n      0x00\n        /* \"#utility.yul\":8909:8927   */\n      0xffffffffffffffff\n        /* \"#utility.yul\":8901:8907   */\n      dup3\n        /* \"#utility.yul\":8898:8928   */\n      gt\n        /* \"#utility.yul\":8895:8951   */\n      iszero\n      tag_219\n      jumpi\n        /* \"#utility.yul\":8931:8949   */\n      tag_220\n      tag_25\n      jump\t// in\n    tag_220:\n        /* \"#utility.yul\":8895:8951   */\n    tag_219:\n        /* \"#utility.yul\":8969:8998   */\n      tag_221\n        /* \"#utility.yul\":8991:8997   */\n      dup3\n        /* \"#utility.yul\":8969:8998   */\n      tag_93\n      jump\t// in\n    tag_221:\n        /* \"#utility.yul\":8961:8998   */\n      swap1\n      pop\n        /* \"#utility.yul\":9053:9057   */\n      0x20\n        /* \"#utility.yul\":9047:9051   */\n      dup2\n        /* \"#utility.yul\":9043:9058   */\n      add\n        /* \"#utility.yul\":9035:9058   */\n      swap1\n      pop\n        /* \"#utility.yul\":8757:9065   */\n      swap2\n      swap1\n      pop\n      jump\t// out\n        /* \"#utility.yul\":9071:9219   */\n    tag_112:\n        /* \"#utility.yul\":9169:9175   */\n      dup3\n        /* \"#utility.yul\":9164:9167   */\n      dup2\n        /* \"#utility.yul\":9159:9162   */\n      dup4\n        /* \"#utility.yul\":9146:9176   */\n      calldatacopy\n        /* \"#utility.yul\":9210:9211   */\n      0x00\n        /* \"#utility.yul\":9201:9207   */\n      dup4\n        /* \"#utility.yul\":9196:9199   */\n      dup4\n        /* \"#utility.yul\":9192:9208   */\n      add\n        /* \"#utility.yul\":9185:9212   */\n      mstore\n        /* \"#utility.yul\":9071:9219   */\n      pop\n      pop\n      pop\n      jump\t// out\n        /* \"#utility.yul\":9225:9650   */\n    tag_113:\n        /* \"#utility.yul\":9303:9308   */\n      0x00\n        /* \"#utility.yul\":9328:9394   */\n      tag_224\n        /* \"#utility.yul\":9344:9393   */\n      tag_225\n        /* \"#utility.yul\":9386:9392   */\n      dup5\n        /* \"#utility.yul\":9344:9393   */\n      tag_111\n      jump\t// in\n    tag_225:\n        /* \"#utility.yul\":9328:9394   */\n      tag_110\n      jump\t// in\n    tag_224:\n        /* \"#utility.yul\":9319:9394   */\n      swap1\n      pop\n        /* \"#utility.yul\":9417:9423   */\n      dup3\n        /* \"#utility.yul\":9410:9415   */\n      dup2\n        /* \"#utility.yul\":9403:9424   */\n      mstore\n        /* \"#utility.yul\":9455:9459   */\n      0x20\n        /* \"#utility.yul\":9448:9453   */\n      dup2\n        /* \"#utility.yul\":9444:9460   */\n      add\n        /* \"#utility.yul\":9493:9496   */\n      dup5\n        /* \"#utility.yul\":9484:9490   */\n      dup5\n        /* \"#utility.yul\":9479:9482   */\n      dup5\n        /* \"#utility.yul\":9475:9491   */\n      add\n        /* \"#utility.yul\":9472:9497   */\n      gt\n        /* \"#utility.yul\":9469:9581   */\n      iszero\n      tag_226\n      jumpi\n        /* \"#utility.yul\":9500:9579   */\n      tag_227\n      tag_108\n      jump\t// in\n    tag_227:\n        /* \"#utility.yul\":9469:9581   */\n    tag_226:\n        /* \"#utility.yul\":9590:9644   */\n      tag_228\n        /* \"#utility.yul\":9637:9643   */\n      dup5\n        /* \"#utility.yul\":9632:9635   */\n      dup3\n        /* \"#utility.yul\":9627:9630   */\n      dup6\n        /* \"#utility.yul\":9590:9644   */\n      tag_112\n      jump\t// in\n    tag_228:\n        /* \"#utility.yul\":9309:9650   */\n      pop\n        /* \"#utility.yul\":9225:9650   */\n      swap4\n      swap3\n      pop\n      pop\n      pop\n      jump\t// out\n        /* \"#utility.yul\":9670:10010   */\n    tag_114:\n        /* \"#utility.yul\":9726:9731   */\n      0x00\n        /* \"#utility.yul\":9775:9778   */\n      dup3\n        /* \"#utility.yul\":9768:9772   */\n      0x1f\n        /* \"#utility.yul\":9760:9766   */\n      dup4\n        /* \"#utility.yul\":9756:9773   */\n      add\n        /* \"#utility.yul\":9752:9779   */\n      slt\n        /* \"#utility.yul\":9742:9864   */\n      tag_230\n      jumpi\n        /* \"#utility.yul\":9783:9862   */\n      tag_231\n      tag_107\n      jump\t// in\n    tag_231:\n        /* \"#utility.yul\":9742:9864   */\n    tag_230:\n        /* \"#utility.yul\":9900:9906   */\n      dup2\n        /* \"#utility.yul\":9887:9907   */\n      calldataload\n        /* \"#utility.yul\":9925:10004   */\n      tag_232\n        /* \"#utility.yul\":10000:10003   */\n      dup5\n        /* \"#utility.yul\":9992:9998   */\n      dup3\n        /* \"#utility.yul\":9985:9989   */\n      0x20\n        /* \"#utility.yul\":9977:9983   */\n      dup7\n        /* \"#utility.yul\":9973:9990   */\n      add\n        /* \"#utility.yul\":9925:10004   */\n      tag_113\n      jump\t// in\n    tag_232:\n        /* \"#utility.yul\":9916:10004   */\n      swap2\n      pop\n        /* \"#utility.yul\":9732:10010   */\n      pop\n        /* \"#utility.yul\":9670:10010   */\n      swap3\n      swap2\n      pop\n      pop\n      jump\t// out\n        /* \"#utility.yul\":10016:10525   */\n    tag_20:\n        /* \"#utility.yul\":10085:10091   */\n      0x00\n        /* \"#utility.yul\":10134:10136   */\n      0x20\n        /* \"#utility.yul\":10122:10131   */\n      dup3\n        /* \"#utility.yul\":10113:10120   */\n      dup5\n        /* \"#utility.yul\":10109:10132   */\n      sub\n        /* \"#utility.yul\":10105:10137   */\n      slt\n        /* \"#utility.yul\":10102:10221   */\n      iszero\n      tag_234\n      jumpi\n        /* \"#utility.yul\":10140:10219   */\n      tag_235\n      tag_80\n      jump\t// in\n    tag_235:\n        /* \"#utility.yul\":10102:10221   */\n    tag_234:\n        /* \"#utility.yul\":10288:10289   */\n      0x00\n        /* \"#utility.yul\":10277:10286   */\n      dup3\n        /* \"#utility.yul\":10273:10290   */\n      add\n        /* \"#utility.yul\":10260:10291   */\n      calldataload\n        /* \"#utility.yul\":10318:10336   */\n      0xffffffffffffffff\n        /* \"#utility.yul\":10310:10316   */\n      dup2\n        /* \"#utility.yul\":10307:10337   */\n      gt\n        /* \"#utility.yul\":10304:10421   */\n      iszero\n      tag_236\n      jumpi\n        /* \"#utility.yul\":10340:10419   */\n      tag_237\n      tag_81\n      jump\t// in\n    tag_237:\n        /* \"#utility.yul\":10304:10421   */\n    tag_236:\n        /* \"#utility.yul\":10445:10508   */\n      tag_238\n        /* \"#utility.yul\":10500:10507   */\n      dup5\n        /* \"#utility.yul\":10491:10497   */\n      dup3\n        /* \"#utility.yul\":10480:10489   */\n      dup6\n        /* \"#utility.yul\":10476:10498   */\n      add\n        /* \"#utility.yul\":10445:10508   */\n      tag_114\n      jump\t// in\n    tag_238:\n        /* \"#utility.yul\":10435:10508   */\n      swap2\n      pop\n        /* \"#utility.yul\":10231:10518   */\n      pop\n        /* \"#utility.yul\":10016:10525   */\n      swap3\n      swap2\n      pop\n      pop\n      jump\t// out\n        /* \"#utility.yul\":10531:10711   */\n    tag_35:\n        /* \"#utility.yul\":10579:10656   */\n      0x4e487b7100000000000000000000000000000000000000000000000000000000\n        /* \"#utility.yul\":10576:10577   */\n      0x00\n        /* \"#utility.yul\":10569:10657   */\n      mstore\n        /* \"#utility.yul\":10676:10680   */\n      0x32\n        /* \"#utility.yul\":10673:10674   */\n      0x04\n        /* \"#utility.yul\":10666:10681   */\n      mstore\n        /* \"#utility.yul\":10700:10704   */\n      0x24\n        /* \"#utility.yul\":10697:10698   */\n      0x00\n        /* \"#utility.yul\":10690:10705   */\n      revert\n        /* \"#utility.yul\":10717:10897   */\n    tag_115:\n        /* \"#utility.yul\":10765:10842   */\n      0x4e487b7100000000000000000000000000000000000000000000000000000000\n        /* \"#utility.yul\":10762:10763   */\n      0x00\n        /* \"#utility.yul\":10755:10843   */\n      mstore\n        /* \"#utility.yul\":10862:10866   */\n      0x22\n        /* \"#utility.yul\":10859:10860   */\n      0x04\n        /* \"#utility.yul\":10852:10867   */\n      mstore\n        /* \"#utility.yul\":10886:10890   */\n      0x24\n        /* \"#utility.yul\":10883:10884   */\n      0x00\n        /* \"#utility.yul\":10876:10891   */\n      revert\n        /* \"#utility.yul\":10903:11223   */\n    tag_42:\n        /* \"#utility.yul\":10947:10953   */\n      0x00\n        /* \"#utility.yul\":10984:10985   */\n      0x02\n        /* \"#utility.yul\":10978:10982   */\n      dup3\n        /* \"#utility.yul\":10974:10986   */\n      div\n        /* \"#utility.yul\":10964:10986   */\n      swap1\n      pop\n        /* \"#utility.yul\":11031:11032   */\n      0x01\n        /* \"#utility.yul\":11025:11029   */\n      dup3\n        /* \"#utility.yul\":11021:11033   */\n      and\n        /* \"#utility.yul\":11052:11070   */\n      dup1\n        /* \"#utility.yul\":11042:11123   */\n      tag_242\n      jumpi\n        /* \"#utility.yul\":11108:11112   */\n      0x7f\n        /* \"#utility.yul\":11100:11106   */\n      dup3\n        /* \"#utility.yul\":11096:11113   */\n      and\n        /* \"#utility.yul\":11086:11113   */\n      swap2\n      pop\n        /* \"#utility.yul\":11042:11123   */\n    tag_242:\n        /* \"#utility.yul\":11170:11172   */\n      0x20\n        /* \"#utility.yul\":11162:11168   */\n      dup3\n        /* \"#utility.yul\":11159:11173   */\n      lt\n        /* \"#utility.yul\":11139:11157   */\n      dup2\n        /* \"#utility.yul\":11136:11174   */\n      sub\n        /* \"#utility.yul\":11133:11217   */\n      tag_243\n      jumpi\n        /* \"#utility.yul\":11189:11207   */\n      tag_244\n      tag_115\n      jump\t// in\n    tag_244:\n        /* \"#utility.yul\":11133:11217   */\n    tag_243:\n        /* \"#utility.yul\":10954:11223   */\n      pop\n        /* \"#utility.yul\":10903:11223   */\n      swap2\n      swap1\n      pop\n      jump\t// out\n        /* \"#utility.yul\":11229:11409   */\n    tag_116:\n        /* \"#utility.yul\":11277:11354   */\n      0x4e487b7100000000000000000000000000000000000000000000000000000000\n        /* \"#utility.yul\":11274:11275   */\n      0x00\n        /* \"#utility.yul\":11267:11355   */\n      mstore\n        /* \"#utility.yul\":11374:11378   */\n      0x11\n        /* \"#utility.yul\":11371:11372   */\n      0x04\n        /* \"#utility.yul\":11364:11379   */\n      mstore\n        /* \"#utility.yul\":11398:11402   */\n      0x24\n        /* \"#utility.yul\":11395:11396   */\n      0x00\n        /* \"#utility.yul\":11388:11403   */\n      revert\n        /* \"#utility.yul\":11415:11648   */\n    tag_50:\n        /* \"#utility.yul\":11454:11457   */\n      0x00\n        /* \"#utility.yul\":11477:11501   */\n      tag_247\n        /* \"#utility.yul\":11495:11500   */\n      dup3\n        /* \"#utility.yul\":11477:11501   */\n      tag_95\n      jump\t// in\n    tag_247:\n        /* \"#utility.yul\":11468:11501   */\n      swap2\n      pop\n        /* \"#utility.yul\":11523:11589   */\n      0xffffffffffffffffffffffffffffffffffffffffffffffffffffffffffffffff\n        /* \"#utility.yul\":11516:11521   */\n      dup3\n        /* \"#utility.yul\":11513:11590   */\n      sub\n        /* \"#utility.yul\":11510:11613   */\n      tag_248\n      jumpi\n        /* \"#utility.yul\":11593:11611   */\n      tag_249\n      tag_116\n      jump\t// in\n    tag_249:\n        /* \"#utility.yul\":11510:11613   */\n    tag_248:\n        /* \"#utility.yul\":11640:11641   */\n      0x01\n        /* \"#utility.yul\":11633:11638   */\n      dup3\n        /* \"#utility.yul\":11629:11642   */\n      add\n        /* \"#utility.yul\":11622:11642   */\n      swap1\n      pop\n        /* \"#utility.yul\":11415:11648   */\n      swap2\n      swap1\n      pop\n      jump\t// out\n        /* \"#utility.yul\":11654:11835   */\n    tag_117:\n        /* \"#utility.yul\":11794:11827   */\n      0x47726174697475646520656e7472792063616e6e6f7420626520656d70747900\n        /* \"#utility.yul\":11790:11791   */\n      0x00\n        /* \"#utility.yul\":11782:11788   */\n      dup3\n        /* \"#utility.yul\":11778:11792   */\n      add\n        /* \"#utility.yul\":11771:11828   */\n      mstore\n        /* \"#utility.yul\":11654:11835   */\n      pop\n      jump\t// out\n        /* \"#utility.yul\":11841:12207   */\n    tag_118:\n        /* \"#utility.yul\":11983:11986   */\n      0x00\n        /* \"#utility.yul\":12004:12071   */\n      tag_252\n        /* \"#utility.yul\":12068:12070   */\n      0x1f\n        /* \"#utility.yul\":12063:12066   */\n      dup4\n        /* \"#utility.yul\":12004:12071   */\n      tag_104\n      jump\t// in\n    tag_252:\n        /* \"#utility.yul\":11997:12071   */\n      swap2\n      pop\n        /* \"#utility.yul\":12080:12173   */\n      tag_253\n        /* \"#utility.yul\":12169:12172   */\n      dup3\n        /* \"#utility.yul\":12080:12173   */\n      tag_117\n      jump\t// in\n    tag_253:\n        /* \"#utility.yul\":12198:12200   */\n      0x20\n        /* \"#utility.yul\":12193:12196   */\n      dup3\n        /* \"#utility.yul\":12189:12201   */\n      add\n        /* \"#utility.yul\":12182:12201   */\n      swap1\n      pop\n        /* \"#utility.yul\":11841:12207   */\n      swap2\n      swap1\n      pop\n      jump\t// out\n        /* \"#utility.yul\":12213:12632   */\n    tag_73:\n        /* \"#utility.yul\":12379:12383   */\n      0x00\n        /* \"#utility.yul\":12417:12419   */\n      0x20\n        /* \"#utility.yul\":12406:12415   */\n      dup3\n        /* \"#utility.yul\":12402:12420   */\n      add\n        /* \"#utility.yul\":12394:12420   */\n      swap1\n      pop\n        /* \"#utility.yul\":12466:12475   */\n      dup2\n        /* \"#utility.yul\":12460:12464   */\n      dup2\n        /* \"#utility.yul\":12456:12476   */\n      sub\n        /* \"#utility.yul\":12452:12453   */\n      0x00\n        /* \"#utility.yul\":12441:12450   */\n      dup4\n        /* \"#utility.yul\":12437:12454   */\n      add\n        /* \"#utility.yul\":12430:12477   */\n      mstore\n        /* \"#utility.yul\":12494:12625   */\n      tag_255\n        /* \"#utility.yul\":12620:12624   */\n      dup2\n        /* \"#utility.yul\":12494:12625   */\n      tag_118\n      jump\t// in\n    tag_255:\n        /* \"#utility.yul\":12486:12625   */\n      swap1\n      pop\n        /* \"#utility.yul\":12213:12632   */\n      swap2\n      swap1\n      pop\n      jump\t// out\n        /* \"#utility.yul\":12638:12779   */\n    tag_119:\n        /* \"#utility.yul\":12687:12691   */\n      0x00\n        /* \"#utility.yul\":12710:12713   */\n      dup2\n        /* \"#utility.yul\":12702:12713   */\n      swap1\n      pop\n        /* \"#utility.yul\":12733:12736   */\n      dup2\n        /* \"#utility.yul\":12730:12731   */\n      0x00\n        /* \"#utility.yul\":12723:12737   */\n      mstore\n        /* \"#utility.yul\":12767:12771   */\n      0x20\n        /* \"#utility.yul\":12764:12765   */\n      0x00\n        /* \"#utility.yul\":12754:12772   */\n      keccak256\n        /* \"#utility.yul\":12746:12772   */\n      swap1\n      pop\n        /* \"#utility.yul\":12638:12779   */\n      swap2\n      swap1\n      pop\n      jump\t// out\n        /* \"#utility.yul\":12785:12878   */\n    tag_120:\n        /* \"#utility.yul\":12822:12828   */\n      0x00\n        /* \"#utility.yul\":12869:12871   */\n      0x20\n        /* \"#utility.yul\":12864:12866   */\n      0x1f\n        /* \"#utility.yul\":12857:12862   */\n      dup4\n        /* \"#utility.yul\":12853:12867   */\n      add\n        /* \"#utility.yul\":12849:12872   */\n      div\n        /* \"#utility.yul\":12839:12872   */\n      swap1\n      pop\n        /* \"#utility.yul\":12785:12878   */\n      swap2\n      swap1\n      pop\n      jump\t// out\n        /* \"#utility.yul\":12884:12991   */\n    tag_121:\n        /* \"#utility.yul\":12928:12936   */\n      0x00\n        /* \"#utility.yul\":12978:12983   */\n      dup3\n        /* \"#utility.yul\":12972:12976   */\n      dup3\n        /* \"#utility.yul\":12968:12984   */\n      shl\n        /* \"#utility.yul\":12947:12984   */\n      swap1\n      pop\n        /* \"#utility.yul\":12884:12991   */\n      swap3\n      swap2\n      pop\n      pop\n      jump\t// out\n        /* \"#utility.yul\":12997:13390   */\n    tag_122:\n        /* \"#utility.yul\":13066:13072   */\n      0x00\n        /* \"#utility.yul\":13116:13117   */\n      0x08\n        /* \"#utility.yul\":13104:13114   */\n      dup4\n        /* \"#utility.yul\":13100:13118   */\n      mul\n        /* \"#utility.yul\":13139:13236   */\n      tag_260\n        /* \"#utility.yul\":13169:13235   */\n      0xffffffffffffffffffffffffffffffffffffffffffffffffffffffffffffffff\n        /* \"#utility.yul\":13158:13167   */\n      dup3\n        /* \"#utility.yul\":13139:13236   */\n      tag_121\n      jump\t// in\n    tag_260:\n        /* \"#utility.yul\":13257:13296   */\n      tag_261\n        /* \"#utility.yul\":13287:13295   */\n      dup7\n        /* \"#utility.yul\":13276:13285   */\n      dup4\n        /* \"#utility.yul\":13257:13296   */\n      tag_121\n      jump\t// in\n    tag_261:\n        /* \"#utility.yul\":13245:13296   */\n      swap6\n      pop\n        /* \"#utility.yul\":13329:13333   */\n      dup1\n        /* \"#utility.yul\":13325:13334   */\n      not\n        /* \"#utility.yul\":13318:13323   */\n      dup5\n        /* \"#utility.yul\":13314:13335   */\n      and\n        /* \"#utility.yul\":13305:13335   */\n      swap4\n      pop\n        /* \"#utility.yul\":13378:13382   */\n      dup1\n        /* \"#utility.yul\":13368:13376   */\n      dup7\n        /* \"#utility.yul\":13364:13383   */\n      and\n        /* \"#utility.yul\":13357:13362   */\n      dup5\n        /* \"#utility.yul\":13354:13384   */\n      or\n        /* \"#utility.yul\":13344:13384   */\n      swap3\n      pop\n        /* \"#utility.yul\":13073:13390   */\n      pop\n      pop\n        /* \"#utility.yul\":12997:13390   */\n      swap4\n      swap3\n      pop\n      pop\n      pop\n      jump\t// out\n        /* \"#utility.yul\":13396:13456   */\n    tag_123:\n        /* \"#utility.yul\":13424:13427   */\n      0x00\n        /* \"#utility.yul\":13445:13450   */\n      dup2\n        /* \"#utility.yul\":13438:13450   */\n      swap1\n      pop\n        /* \"#utility.yul\":13396:13456   */\n      swap2\n      swap1\n      pop\n      jump\t// out\n        /* \"#utility.yul\":13462:13604   */\n    tag_124:\n        /* \"#utility.yul\":13512:13521   */\n      0x00\n        /* \"#utility.yul\":13545:13598   */\n      tag_264\n        /* \"#utility.yul\":13563:13597   */\n      tag_265\n        /* \"#utility.yul\":13572:13596   */\n      tag_266\n        /* \"#utility.yul\":13590:13595   */\n      dup5\n        /* \"#utility.yul\":13572:13596   */\n      tag_95\n      jump\t// in\n    tag_266:\n        /* \"#utility.yul\":13563:13597   */\n      tag_123\n      jump\t// in\n    tag_265:\n        /* \"#utility.yul\":13545:13598   */\n      tag_95\n      jump\t// in\n    tag_264:\n        /* \"#utility.yul\":13532:13598   */\n      swap1\n      pop\n        /* \"#utility.yul\":13462:13604   */\n      swap2\n      swap1\n      pop\n      jump\t// out\n        /* \"#utility.yul\":13610:13685   */\n    tag_125:\n        /* \"#utility.yul\":13653:13656   */\n      0x00\n        /* \"#utility.yul\":13674:13679   */\n      dup2\n        /* \"#utility.yul\":13667:13679   */\n      swap1\n      pop\n        /* \"#utility.yul\":13610:13685   */\n      swap2\n      swap1\n      pop\n      jump\t// out\n        /* \"#utility.yul\":13691:13960   */\n    tag_126:\n        /* \"#utility.yul\":13801:13840   */\n      tag_269\n        /* \"#utility.yul\":13832:13839   */\n      dup4\n        /* \"#utility.yul\":13801:13840   */\n      tag_124\n      jump\t// in\n    tag_269:\n        /* \"#utility.yul\":13862:13953   */\n      tag_270\n        /* \"#utility.yul\":13911:13952   */\n      tag_271\n        /* \"#utility.yul\":13935:13951   */\n      dup3\n        /* \"#utility.yul\":13911:13952   */\n      tag_125\n      jump\t// in\n    tag_271:\n        /* \"#utility.yul\":13903:13909   */\n      dup5\n        /* \"#utility.yul\":13896:13900   */\n      dup5\n        /* \"#utility.yul\":13890:13901   */\n      sload\n        /* \"#utility.yul\":13862:13953   */\n      tag_122\n      jump\t// in\n    tag_270:\n        /* \"#utility.yul\":13856:13860   */\n      dup3\n        /* \"#utility.yul\":13849:13954   */\n      sstore\n        /* \"#utility.yul\":13767:13960   */\n      pop\n        /* \"#utility.yul\":13691:13960   */\n      pop\n      pop\n      pop\n      jump\t// out\n        /* \"#utility.yul\":13966:14039   */\n    tag_127:\n        /* \"#utility.yul\":14011:14014   */\n      0x00\n        /* \"#utility.yul\":13966:14039   */\n      swap1\n      jump\t// out\n        /* \"#utility.yul\":14045:14234   */\n    tag_128:\n        /* \"#utility.yul\":14122:14154   */\n      tag_274\n      tag_127\n      jump\t// in\n    tag_274:\n        /* \"#utility.yul\":14163:14228   */\n      tag_275\n        /* \"#utility.yul\":14221:14227   */\n      dup2\n        /* \"#utility.yul\":14213:14219   */\n      dup5\n        /* \"#utility.yul\":14207:14211   */\n      dup5\n        /* \"#utility.yul\":14163:14228   */\n      tag_126\n      jump\t// in\n    tag_275:\n        /* \"#utility.yul\":14098:14234   */\n      pop\n        /* \"#utility.yul\":14045:14234   */\n      pop\n      pop\n      jump\t// out\n        /* \"#utility.yul\":14240:14426   */\n    tag_129:\n        /* \"#utility.yul\":14300:14420   */\n    tag_277:\n        /* \"#utility.yul\":14317:14320   */\n      dup2\n        /* \"#utility.yul\":14310:14315   */\n      dup2\n        /* \"#utility.yul\":14307:14321   */\n      lt\n        /* \"#utility.yul\":14300:14420   */\n      iszero\n      tag_279\n      jumpi\n        /* \"#utility.yul\":14371:14410   */\n      tag_280\n        /* \"#utility.yul\":14408:14409   */\n      0x00\n        /* \"#utility.yul\":14401:14406   */\n      dup3\n        /* \"#utility.yul\":14371:14410   */\n      tag_128\n      jump\t// in\n    tag_280:\n        /* \"#utility.yul\":14344:14345   */\n      0x01\n        /* \"#utility.yul\":14337:14342   */\n      dup2\n        /* \"#utility.yul\":14333:14346   */\n      add\n        /* \"#utility.yul\":14324:14346   */\n      swap1\n      pop\n        /* \"#utility.yul\":14300:14420   */\n      jump(tag_277)\n    tag_279:\n        /* \"#utility.yul\":14240:14426   */\n      pop\n      pop\n      jump\t// out\n        /* \"#utility.yul\":14432:14975   */\n    tag_130:\n        /* \"#utility.yul\":14533:14535   */\n      0x1f\n        /* \"#utility.yul\":14528:14531   */\n      dup3\n        /* \"#utility.yul\":14525:14536   */\n      gt\n        /* \"#utility.yul\":14522:14968   */\n      iszero\n      tag_282\n      jumpi\n        /* \"#utility.yul\":14567:14605   */\n      tag_283\n        /* \"#utility.yul\":14599:14604   */\n      dup2\n        /* \"#utility.yul\":14567:14605   */\n      tag_119\n      jump\t// in\n    tag_283:\n        /* \"#utility.yul\":14651:14680   */\n      tag_284\n        /* \"#utility.yul\":14669:14679   */\n      dup5\n        /* \"#utility.yul\":14651:14680   */\n      tag_120\n      jump\t// in\n    tag_284:\n        /* \"#utility.yul\":14641:14649   */\n      dup2\n        /* \"#utility.yul\":14637:14681   */\n      add\n        /* \"#utility.yul\":14834:14836   */\n      0x20\n        /* \"#utility.yul\":14822:14832   */\n      dup6\n        /* \"#utility.yul\":14819:14837   */\n      lt\n        /* \"#utility.yul\":14816:14865   */\n      iszero\n      tag_285\n      jumpi\n        /* \"#utility.yul\":14855:14863   */\n      dup2\n        /* \"#utility.yul\":14840:14863   */\n      swap1\n      pop\n        /* \"#utility.yul\":14816:14865   */\n    tag_285:\n        /* \"#utility.yul\":14878:14958   */\n      tag_286\n        /* \"#utility.yul\":14934:14956   */\n      tag_287\n        /* \"#utility.yul\":14952:14955   */\n      dup6\n        /* \"#utility.yul\":14934:14956   */\n      tag_120\n      jump\t// in\n    tag_287:\n        /* \"#utility.yul\":14924:14932   */\n      dup4\n        /* \"#utility.yul\":14920:14957   */\n      add\n        /* \"#utility.yul\":14907:14918   */\n      dup3\n        /* \"#utility.yul\":14878:14958   */\n      tag_129\n      jump\t// in\n    tag_286:\n        /* \"#utility.yul\":14537:14968   */\n      pop\n      pop\n        /* \"#utility.yul\":14522:14968   */\n    tag_282:\n        /* \"#utility.yul\":14432:14975   */\n      pop\n      pop\n      pop\n      jump\t// out\n        /* \"#utility.yul\":14981:15098   */\n    tag_131:\n        /* \"#utility.yul\":15035:15043   */\n      0x00\n        /* \"#utility.yul\":15085:15090   */\n      dup3\n        /* \"#utility.yul\":15079:15083   */\n      dup3\n        /* \"#utility.yul\":15075:15091   */\n      shr\n        /* \"#utility.yul\":15054:15091   */\n      swap1\n      pop\n        /* \"#utility.yul\":14981:15098   */\n      swap3\n      swap2\n      pop\n      pop\n      jump\t// out\n        /* \"#utility.yul\":15104:15273   */\n    tag_132:\n        /* \"#utility.yul\":15148:15154   */\n      0x00\n        /* \"#utility.yul\":15181:15232   */\n      tag_290\n        /* \"#utility.yul\":15229:15230   */\n      0x00\n        /* \"#utility.yul\":15225:15231   */\n      not\n        /* \"#utility.yul\":15217:15222   */\n      dup5\n        /* \"#utility.yul\":15214:15215   */\n      0x08\n        /* \"#utility.yul\":15210:15223   */\n      mul\n        /* \"#utility.yul\":15181:15232   */\n      tag_131\n      jump\t// in\n    tag_290:\n        /* \"#utility.yul\":15177:15233   */\n      not\n        /* \"#utility.yul\":15262:15266   */\n      dup1\n        /* \"#utility.yul\":15256:15260   */\n      dup4\n        /* \"#utility.yul\":15252:15267   */\n      and\n        /* \"#utility.yul\":15242:15267   */\n      swap2\n      pop\n        /* \"#utility.yul\":15155:15273   */\n      pop\n        /* \"#utility.yul\":15104:15273   */\n      swap3\n      swap2\n      pop\n      pop\n      jump\t// out\n        /* \"#utility.yul\":15278:15573   */\n    tag_133:\n        /* \"#utility.yul\":15354:15358   */\n      0x00\n        /* \"#utility.yul\":15500:15529   */\n      tag_292\n        /* \"#utility.yul\":15525:15528   */\n      dup4\n        /* \"#utility.yul\":15519:15523   */\n      dup4\n        /* \"#utility.yul\":15500:15529   */\n      tag_132\n      jump\t// in\n    tag_292:\n        /* \"#utility.yul\":15492:15529   */\n      swap2\n      pop\n        /* \"#utility.yul\":15562:15565   */\n      dup3\n        /* \"#utility.yul\":15559:15560   */\n      0x02\n        /* \"#utility.yul\":15555:15566   */\n      mul\n        /* \"#utility.yul\":15549:15553   */\n      dup3\n        /* \"#utility.yul\":15546:15567   */\n      or\n        /* \"#utility.yul\":15538:15567   */\n      swap1\n      pop\n        /* \"#utility.yul\":15278:15573   */\n      swap3\n      swap2\n      pop\n      pop\n      jump\t// out\n        /* \"#utility.yul\":15578:16973   */\n    tag_76:\n        /* \"#utility.yul\":15695:15732   */\n      tag_294\n        /* \"#utility.yul\":15728:15731   */\n      dup3\n        /* \"#utility.yul\":15695:15732   */\n      tag_90\n      jump\t// in\n    tag_294:\n        /* \"#utility.yul\":15797:15815   */\n      0xffffffffffffffff\n        /* \"#utility.yul\":15789:15795   */\n      dup2\n        /* \"#utility.yul\":15786:15816   */\n      gt\n        /* \"#utility.yul\":15783:15839   */\n      iszero\n      tag_295\n      jumpi\n        /* \"#utility.yul\":15819:15837   */\n      tag_296\n      tag_25\n      jump\t// in\n    tag_296:\n        /* \"#utility.yul\":15783:15839   */\n    tag_295:\n        /* \"#utility.yul\":15863:15901   */\n      tag_297\n        /* \"#utility.yul\":15895:15899   */\n      dup3\n        /* \"#utility.yul\":15889:15900   */\n      sload\n        /* \"#utility.yul\":15863:15901   */\n      tag_42\n      jump\t// in\n    tag_297:\n        /* \"#utility.yul\":15948:16015   */\n      tag_298\n        /* \"#utility.yul\":16008:16014   */\n      dup3\n        /* \"#utility.yul\":16000:16006   */\n      dup3\n        /* \"#utility.yul\":15994:15998   */\n      dup6\n        /* \"#utility.yul\":15948:16015   */\n      tag_130\n      jump\t// in\n    tag_298:\n        /* \"#utility.yul\":16042:16043   */\n      0x00\n        /* \"#utility.yul\":16066:16070   */\n      0x20\n        /* \"#utility.yul\":16053:16070   */\n      swap1\n      pop\n        /* \"#utility.yul\":16098:16100   */\n      0x1f\n        /* \"#utility.yul\":16090:16096   */\n      dup4\n        /* \"#utility.yul\":16087:16101   */\n      gt\n        /* \"#utility.yul\":16115:16116   */\n      0x01\n        /* \"#utility.yul\":16110:16728   */\n      dup2\n      eq\n      tag_300\n      jumpi\n        /* \"#utility.yul\":16772:16773   */\n      0x00\n        /* \"#utility.yul\":16789:16795   */\n      dup5\n        /* \"#utility.yul\":16786:16863   */\n      iszero\n      tag_301\n      jumpi\n        /* \"#utility.yul\":16838:16847   */\n      dup3\n        /* \"#utility.yul\":16833:16836   */\n      dup8\n        /* \"#utility.yul\":16829:16848   */\n      add\n        /* \"#utility.yul\":16823:16849   */\n      mload\n        /* \"#utility.yul\":16814:16849   */\n      swap1\n      pop\n        /* \"#utility.yul\":16786:16863   */\n    tag_301:\n        /* \"#utility.yul\":16889:16956   */\n      tag_302\n        /* \"#utility.yul\":16949:16955   */\n      dup6\n        /* \"#utility.yul\":16942:16947   */\n      dup3\n        /* \"#utility.yul\":16889:16956   */\n      tag_133\n      jump\t// in\n    tag_302:\n        /* \"#utility.yul\":16883:16887   */\n      dup7\n        /* \"#utility.yul\":16876:16957   */\n      sstore\n        /* \"#utility.yul\":16745:16967   */\n      pop\n        /* \"#utility.yul\":16080:16967   */\n      jump(tag_299)\n        /* \"#utility.yul\":16110:16728   */\n    tag_300:\n        /* \"#utility.yul\":16162:16166   */\n      0x1f\n        /* \"#utility.yul\":16158:16167   */\n      not\n        /* \"#utility.yul\":16150:16156   */\n      dup5\n        /* \"#utility.yul\":16146:16168   */\n      and\n        /* \"#utility.yul\":16196:16233   */\n      tag_303\n        /* \"#utility.yul\":16228:16232   */\n      dup7\n        /* \"#utility.yul\":16196:16233   */\n      tag_119\n      jump\t// in\n    tag_303:\n        /* \"#utility.yul\":16255:16256   */\n      0x00\n        /* \"#utility.yul\":16269:16477   */\n    tag_304:\n        /* \"#utility.yul\":16283:16290   */\n      dup3\n        /* \"#utility.yul\":16280:16281   */\n      dup2\n        /* \"#utility.yul\":16277:16291   */\n      lt\n        /* \"#utility.yul\":16269:16477   */\n      iszero\n      tag_306\n      jumpi\n        /* \"#utility.yul\":16362:16371   */\n      dup5\n        /* \"#utility.yul\":16357:16360   */\n      dup10\n        /* \"#utility.yul\":16353:16372   */\n      add\n        /* \"#utility.yul\":16347:16373   */\n      mload\n        /* \"#utility.yul\":16339:16345   */\n      dup3\n        /* \"#utility.yul\":16332:16374   */\n      sstore\n        /* \"#utility.yul\":16413:16414   */\n      0x01\n        /* \"#utility.yul\":16405:16411   */\n      dup3\n        /* \"#utility.yul\":16401:16415   */\n      add\n        /* \"#utility.yul\":16391:16415   */\n      swap2\n      pop\n        /* \"#utility.yul\":16460:16462   */\n      0x20\n        /* \"#utility.yul\":16449:16458   */\n      dup6\n        /* \"#utility.yul\":16445:16463   */\n      add\n        /* \"#utility.yul\":16432:16463   */\n      swap5\n      pop\n        /* \"#utility.yul\":16306:16310   */\n      0x20\n        /* \"#utility.yul\":16303:16304   */\n      dup2\n        /* \"#utility.yul\":16299:16311   */\n      add\n        /* \"#utility.yul\":16294:16311   */\n      swap1\n      pop\n        /* \"#utility.yul\":16269:16477   */\n      jump(tag_304)\n    tag_306:\n        /* \"#utility.yul\":16505:16511   */\n      dup7\n        /* \"#utility.yul\":16496:16503   */\n      dup4\n        /* \"#utility.yul\":16493:16512   */\n      lt\n        /* \"#utility.yul\":16490:16669   */\n      iszero\n      tag_307\n      jumpi\n        /* \"#utility.yul\":16563:16572   */\n      dup5\n        /* \"#utility.yul\":16558:16561   */\n      dup10\n        /* \"#utility.yul\":16554:16573   */\n      add\n        /* \"#utility.yul\":16548:16574   */\n      mload\n        /* \"#utility.yul\":16606:16654   */\n      tag_308\n        /* \"#utility.yul\":16648:16652   */\n      0x1f\n        /* \"#utility.yul\":16640:16646   */\n      dup10\n        /* \"#utility.yul\":16636:16653   */\n      and\n        /* \"#utility.yul\":16625:16634   */\n      dup3\n        /* \"#utility.yul\":16606:16654   */\n      tag_132\n      jump\t// in\n    tag_308:\n        /* \"#utility.yul\":16598:16604   */\n      dup4\n        /* \"#utility.yul\":16591:16655   */\n      sstore\n        /* \"#utility.yul\":16513:16669   */\n      pop\n        /* \"#utility.yul\":16490:16669   */\n    tag_307:\n        /* \"#utility.yul\":16715:16716   */\n      0x01\n        /* \"#utility.yul\":16711:16712   */\n      0x02\n        /* \"#utility.yul\":16703:16709   */\n      dup9\n        /* \"#utility.yul\":16699:16713   */\n      mul\n        /* \"#utility.yul\":16695:16717   */\n      add\n        /* \"#utility.yul\":16689:16693   */\n      dup9\n        /* \"#utility.yul\":16682:16718   */\n      sstore\n        /* \"#utility.yul\":16117:16728   */\n      pop\n      pop\n      pop\n        /* \"#utility.yul\":16080:16967   */\n    tag_299:\n      pop\n        /* \"#utility.yul\":15670:16973   */\n      pop\n      pop\n      pop\n        /* \"#utility.yul\":15578:16973   */\n      pop\n      pop\n      jump\t// out\n        /* \"#utility.yul\":16979:17402   */\n    tag_78:\n        /* \"#utility.yul\":17120:17124   */\n      0x00\n        /* \"#utility.yul\":17158:17160   */\n      0x40\n        /* \"#utility.yul\":17147:17156   */\n      dup3\n        /* \"#utility.yul\":17143:17161   */\n      add\n        /* \"#utility.yul\":17135:17161   */\n      swap1\n      pop\n        /* \"#utility.yul\":17207:17216   */\n      dup2\n        /* \"#utility.yul\":17201:17205   */\n      dup2\n        /* \"#utility.yul\":17197:17217   */\n      sub\n        /* \"#utility.yul\":17193:17194   */\n      0x00\n        /* \"#utility.yul\":17182:17191   */\n      dup4\n        /* \"#utility.yul\":17178:17195   */\n      add\n        /* \"#utility.yul\":17171:17218   */\n      mstore\n        /* \"#utility.yul\":17235:17313   */\n      tag_310\n        /* \"#utility.yul\":17308:17312   */\n      dup2\n        /* \"#utility.yul\":17299:17305   */\n      dup6\n        /* \"#utility.yul\":17235:17313   */\n      tag_105\n      jump\t// in\n    tag_310:\n        /* \"#utility.yul\":17227:17313   */\n      swap1\n      pop\n        /* \"#utility.yul\":17323:17395   */\n      tag_311\n        /* \"#utility.yul\":17391:17393   */\n      0x20\n        /* \"#utility.yul\":17380:17389   */\n      dup4\n        /* \"#utility.yul\":17376:17394   */\n      add\n        /* \"#utility.yul\":17367:17373   */\n      dup5\n        /* \"#utility.yul\":17323:17395   */\n      tag_106\n      jump\t// in\n    tag_311:\n        /* \"#utility.yul\":16979:17402   */\n      swap4\n      swap3\n      pop\n      pop\n      pop\n      jump\t// out\n\n    auxdata: 0xa2646970667358221220298919af8b496528406e582ae8fcba9d8e0b2e105f1a4f14fbfbf2a3ab6735ff64736f6c634300081a0033\n}\n",
				"bytecode": {
					"linkReferences": {},
					"object": "6080604052348015600e575f80fd5b50610f028061001c5f395ff3fe608060405234801561000f575f80fd5b506004361061003f575f3560e01c806358bc35e614610043578063b30906d414610073578063bb87f9cd146100a5575b5f80fd5b61005d60048036038101906100589190610678565b6100c1565b60405161006a9190610842565b60405180910390f35b61008d6004803603810190610088919061088c565b6103a6565b60405161009c9392919061091d565b60405180910390f35b6100bf60048036038101906100ba9190610a85565b61047f565b005b60605f808054905067ffffffffffffffff8111156100e2576100e1610961565b5b60405190808252806020026020018201604052801561011b57816020015b6101086105d8565b8152602001906001900390816101005790505b5090505f805b5f805490508110156102f2578473ffffffffffffffffffffffffffffffffffffffff165f828154811061015757610156610acc565b5b905f5260205f2090600302015f015f9054906101000a900473ffffffffffffffffffffffffffffffffffffffff1673ffffffffffffffffffffffffffffffffffffffff16036102e5575f81815481106101b3576101b2610acc565b5b905f5260205f2090600302016040518060600160405290815f82015f9054906101000a900473ffffffffffffffffffffffffffffffffffffffff1673ffffffffffffffffffffffffffffffffffffffff1673ffffffffffffffffffffffffffffffffffffffff16815260200160018201805461022e90610b26565b80601f016020809104026020016040519081016040528092919081815260200182805461025a90610b26565b80156102a55780601f1061027c576101008083540402835291602001916102a5565b820191905f5260205f20905b81548152906001019060200180831161028857829003601f168201915b505050505081526020016002820154815250508383815181106102cb576102ca610acc565b5b602002602001018190525081806102e190610b83565b9250505b8080600101915050610121565b505f8167ffffffffffffffff81111561030e5761030d610961565b5b60405190808252806020026020018201604052801561034757816020015b6103346105d8565b81526020019060019003908161032c5790505b5090505f5b8281101561039a5783818151811061036757610366610acc565b5b602002602001015182828151811061038257610381610acc565b5b6020026020010181905250808060010191505061034c565b50809350505050919050565b5f81815481106103b4575f80fd5b905f5260205f2090600302015f91509050805f015f9054906101000a900473ffffffffffffffffffffffffffffffffffffffff16908060010180546103f890610b26565b80601f016020809104026020016040519081016040528092919081815260200182805461042490610b26565b801561046f5780601f106104465761010080835404028352916020019161046f565b820191905f5260205f20905b81548152906001019060200180831161045257829003601f168201915b5050505050908060020154905083565b5f8151116104c2576040517f08c379a00000000000000000000000000000000000000000000000000000000081526004016104b990610c14565b60405180910390fd5b5f60405180606001604052803373ffffffffffffffffffffffffffffffffffffffff1681526020018381526020014281525090505f81908060018154018082558091505060019003905f5260205f2090600302015f909190919091505f820151815f015f6101000a81548173ffffffffffffffffffffffffffffffffffffffff021916908373ffffffffffffffffffffffffffffffffffffffff16021790555060208201518160010190816105779190610dcf565b506040820151816002015550503373ffffffffffffffffffffffffffffffffffffffff167fb3125cb8396bb6a03919ad52be03568b0b060ee1c1c5ebd50df4059b57c7ad9d83426040516105cc929190610e9e565b60405180910390a25050565b60405180606001604052805f73ffffffffffffffffffffffffffffffffffffffff168152602001606081526020015f81525090565b5f604051905090565b5f80fd5b5f80fd5b5f73ffffffffffffffffffffffffffffffffffffffff82169050919050565b5f6106478261061e565b9050919050565b6106578161063d565b8114610661575f80fd5b50565b5f813590506106728161064e565b92915050565b5f6020828403121561068d5761068c610616565b5b5f61069a84828501610664565b91505092915050565b5f81519050919050565b5f82825260208201905092915050565b5f819050602082019050919050565b6106d58161063d565b82525050565b5f81519050919050565b5f82825260208201905092915050565b8281835e5f83830152505050565b5f601f19601f8301169050919050565b5f61071d826106db565b61072781856106e5565b93506107378185602086016106f5565b61074081610703565b840191505092915050565b5f819050919050565b61075d8161074b565b82525050565b5f606083015f8301516107785f8601826106cc565b50602083015184820360208601526107908282610713565b91505060408301516107a56040860182610754565b508091505092915050565b5f6107bb8383610763565b905092915050565b5f602082019050919050565b5f6107d9826106a3565b6107e381856106ad565b9350836020820285016107f5856106bd565b805f5b85811015610830578484038952815161081185826107b0565b945061081c836107c3565b925060208a019950506001810190506107f8565b50829750879550505050505092915050565b5f6020820190508181035f83015261085a81846107cf565b905092915050565b61086b8161074b565b8114610875575f80fd5b50565b5f8135905061088681610862565b92915050565b5f602082840312156108a1576108a0610616565b5b5f6108ae84828501610878565b91505092915050565b6108c08161063d565b82525050565b5f82825260208201905092915050565b5f6108e0826106db565b6108ea81856108c6565b93506108fa8185602086016106f5565b61090381610703565b840191505092915050565b6109178161074b565b82525050565b5f6060820190506109305f8301866108b7565b818103602083015261094281856108d6565b9050610951604083018461090e565b949350505050565b5f80fd5b5f80fd5b7f4e487b71000000000000000000000000000000000000000000000000000000005f52604160045260245ffd5b61099782610703565b810181811067ffffffffffffffff821117156109b6576109b5610961565b5b80604052505050565b5f6109c861060d565b90506109d4828261098e565b919050565b5f67ffffffffffffffff8211156109f3576109f2610961565b5b6109fc82610703565b9050602081019050919050565b828183375f83830152505050565b5f610a29610a24846109d9565b6109bf565b905082815260208101848484011115610a4557610a4461095d565b5b610a50848285610a09565b509392505050565b5f82601f830112610a6c57610a6b610959565b5b8135610a7c848260208601610a17565b91505092915050565b5f60208284031215610a9a57610a99610616565b5b5f82013567ffffffffffffffff811115610ab757610ab661061a565b5b610ac384828501610a58565b91505092915050565b7f4e487b71000000000000000000000000000000000000000000000000000000005f52603260045260245ffd5b7f4e487b71000000000000000000000000000000000000000000000000000000005f52602260045260245ffd5b5f6002820490506001821680610b3d57607f821691505b602082108103610b5057610b4f610af9565b5b50919050565b7f4e487b71000000000000000000000000000000000000000000000000000000005f52601160045260245ffd5b5f610b8d8261074b565b91507fffffffffffffffffffffffffffffffffffffffffffffffffffffffffffffffff8203610bbf57610bbe610b56565b5b600182019050919050565b7f47726174697475646520656e7472792063616e6e6f7420626520656d707479005f82015250565b5f610bfe601f836108c6565b9150610c0982610bca565b602082019050919050565b5f6020820190508181035f830152610c2b81610bf2565b9050919050565b5f819050815f5260205f209050919050565b5f6020601f8301049050919050565b5f82821b905092915050565b5f60088302610c8e7fffffffffffffffffffffffffffffffffffffffffffffffffffffffffffffffff82610c53565b610c988683610c53565b95508019841693508086168417925050509392505050565b5f819050919050565b5f610cd3610cce610cc98461074b565b610cb0565b61074b565b9050919050565b5f819050919050565b610cec83610cb9565b610d00610cf882610cda565b848454610c5f565b825550505050565b5f90565b610d14610d08565b610d1f818484610ce3565b505050565b5b81811015610d4257610d375f82610d0c565b600181019050610d25565b5050565b601f821115610d8757610d5881610c32565b610d6184610c44565b81016020851015610d70578190505b610d84610d7c85610c44565b830182610d24565b50505b505050565b5f82821c905092915050565b5f610da75f1984600802610d8c565b1980831691505092915050565b5f610dbf8383610d98565b9150826002028217905092915050565b610dd8826106db565b67ffffffffffffffff811115610df157610df0610961565b5b610dfb8254610b26565b610e06828285610d46565b5f60209050601f831160018114610e37575f8415610e25578287015190505b610e2f8582610db4565b865550610e96565b601f198416610e4586610c32565b5f5b82811015610e6c57848901518255600182019150602085019450602081019050610e47565b86831015610e895784890151610e85601f891682610d98565b8355505b6001600288020188555050505b505050505050565b5f6040820190508181035f830152610eb681856108d6565b9050610ec5602083018461090e565b939250505056fea2646970667358221220298919af8b496528406e582ae8fcba9d8e0b2e105f1a4f14fbfbf2a3ab6735ff64736f6c634300081a0033",
					"opcodes": "PUSH1 0x80 PUSH1 0x40 MSTORE CALLVALUE DUP1 ISZERO PUSH1 0xE JUMPI PUSH0 DUP1 REVERT JUMPDEST POP PUSH2 0xF02 DUP1 PUSH2 0x1C PUSH0 CODECOPY PUSH0 RETURN INVALID PUSH1 0x80 PUSH1 0x40 MSTORE CALLVALUE DUP1 ISZERO PUSH2 0xF JUMPI PUSH0 DUP1 REVERT JUMPDEST POP PUSH1 0x4 CALLDATASIZE LT PUSH2 0x3F JUMPI PUSH0 CALLDATALOAD PUSH1 0xE0 SHR DUP1 PUSH4 0x58BC35E6 EQ PUSH2 0x43 JUMPI DUP1 PUSH4 0xB30906D4 EQ PUSH2 0x73 JUMPI DUP1 PUSH4 0xBB87F9CD EQ PUSH2 0xA5 JUMPI JUMPDEST PUSH0 DUP1 REVERT JUMPDEST PUSH2 0x5D PUSH1 0x4 DUP1 CALLDATASIZE SUB DUP2 ADD SWAP1 PUSH2 0x58 SWAP2 SWAP1 PUSH2 0x678 JUMP JUMPDEST PUSH2 0xC1 JUMP JUMPDEST PUSH1 0x40 MLOAD PUSH2 0x6A SWAP2 SWAP1 PUSH2 0x842 JUMP JUMPDEST PUSH1 0x40 MLOAD DUP1 SWAP2 SUB SWAP1 RETURN JUMPDEST PUSH2 0x8D PUSH1 0x4 DUP1 CALLDATASIZE SUB DUP2 ADD SWAP1 PUSH2 0x88 SWAP2 SWAP1 PUSH2 0x88C JUMP JUMPDEST PUSH2 0x3A6 JUMP JUMPDEST PUSH1 0x40 MLOAD PUSH2 0x9C SWAP4 SWAP3 SWAP2 SWAP1 PUSH2 0x91D JUMP JUMPDEST PUSH1 0x40 MLOAD DUP1 SWAP2 SUB SWAP1 RETURN JUMPDEST PUSH2 0xBF PUSH1 0x4 DUP1 CALLDATASIZE SUB DUP2 ADD SWAP1 PUSH2 0xBA SWAP2 SWAP1 PUSH2 0xA85 JUMP JUMPDEST PUSH2 0x47F JUMP JUMPDEST STOP JUMPDEST PUSH1 0x60 PUSH0 DUP1 DUP1 SLOAD SWAP1 POP PUSH8 0xFFFFFFFFFFFFFFFF DUP2 GT ISZERO PUSH2 0xE2 JUMPI PUSH2 0xE1 PUSH2 0x961 JUMP JUMPDEST JUMPDEST PUSH1 0x40 MLOAD SWAP1 DUP1 DUP3 MSTORE DUP1 PUSH1 0x20 MUL PUSH1 0x20 ADD DUP3 ADD PUSH1 0x40 MSTORE DUP1 ISZERO PUSH2 0x11B JUMPI DUP2 PUSH1 0x20 ADD JUMPDEST PUSH2 0x108 PUSH2 0x5D8 JUMP JUMPDEST DUP2 MSTORE PUSH1 0x20 ADD SWAP1 PUSH1 0x1 SWAP1 SUB SWAP1 DUP2 PUSH2 0x100 JUMPI SWAP1 POP JUMPDEST POP SWAP1 POP PUSH0 DUP1 JUMPDEST PUSH0 DUP1 SLOAD SWAP1 POP DUP2 LT ISZERO PUSH2 0x2F2 JUMPI DUP5 PUSH20 0xFFFFFFFFFFFFFFFFFFFFFFFFFFFFFFFFFFFFFFFF AND PUSH0 DUP3 DUP2 SLOAD DUP2 LT PUSH2 0x157 JUMPI PUSH2 0x156 PUSH2 0xACC JUMP JUMPDEST JUMPDEST SWAP1 PUSH0 MSTORE PUSH1 0x20 PUSH0 KECCAK256 SWAP1 PUSH1 0x3 MUL ADD PUSH0 ADD PUSH0 SWAP1 SLOAD SWAP1 PUSH2 0x100 EXP SWAP1 DIV PUSH20 0xFFFFFFFFFFFFFFFFFFFFFFFFFFFFFFFFFFFFFFFF AND PUSH20 0xFFFFFFFFFFFFFFFFFFFFFFFFFFFFFFFFFFFFFFFF AND SUB PUSH2 0x2E5 JUMPI PUSH0 DUP2 DUP2 SLOAD DUP2 LT PUSH2 0x1B3 JUMPI PUSH2 0x1B2 PUSH2 0xACC JUMP JUMPDEST JUMPDEST SWAP1 PUSH0 MSTORE PUSH1 0x20 PUSH0 KECCAK256 SWAP1 PUSH1 0x3 MUL ADD PUSH1 0x40 MLOAD DUP1 PUSH1 0x60 ADD PUSH1 0x40 MSTORE SWAP1 DUP2 PUSH0 DUP3 ADD PUSH0 SWAP1 SLOAD SWAP1 PUSH2 0x100 EXP SWAP1 DIV PUSH20 0xFFFFFFFFFFFFFFFFFFFFFFFFFFFFFFFFFFFFFFFF AND PUSH20 0xFFFFFFFFFFFFFFFFFFFFFFFFFFFFFFFFFFFFFFFF AND PUSH20 0xFFFFFFFFFFFFFFFFFFFFFFFFFFFFFFFFFFFFFFFF AND DUP2 MSTORE PUSH1 0x20 ADD PUSH1 0x1 DUP3 ADD DUP1 SLOAD PUSH2 0x22E SWAP1 PUSH2 0xB26 JUMP JUMPDEST DUP1 PUSH1 0x1F ADD PUSH1 0x20 DUP1 SWAP2 DIV MUL PUSH1 0x20 ADD PUSH1 0x40 MLOAD SWAP1 DUP2 ADD PUSH1 0x40 MSTORE DUP1 SWAP3 SWAP2 SWAP1 DUP2 DUP2 MSTORE PUSH1 0x20 ADD DUP3 DUP1 SLOAD PUSH2 0x25A SWAP1 PUSH2 0xB26 JUMP JUMPDEST DUP1 ISZERO PUSH2 0x2A5 JUMPI DUP1 PUSH1 0x1F LT PUSH2 0x27C JUMPI PUSH2 0x100 DUP1 DUP4 SLOAD DIV MUL DUP4 MSTORE SWAP2 PUSH1 0x20 ADD SWAP2 PUSH2 0x2A5 JUMP JUMPDEST DUP3 ADD SWAP2 SWAP1 PUSH0 MSTORE PUSH1 0x20 PUSH0 KECCAK256 SWAP1 JUMPDEST DUP2 SLOAD DUP2 MSTORE SWAP1 PUSH1 0x1 ADD SWAP1 PUSH1 0x20 ADD DUP1 DUP4 GT PUSH2 0x288 JUMPI DUP3 SWAP1 SUB PUSH1 0x1F AND DUP3 ADD SWAP2 JUMPDEST POP POP POP POP POP DUP2 MSTORE PUSH1 0x20 ADD PUSH1 0x2 DUP3 ADD SLOAD DUP2 MSTORE POP POP DUP4 DUP4 DUP2 MLOAD DUP2 LT PUSH2 0x2CB JUMPI PUSH2 0x2CA PUSH2 0xACC JUMP JUMPDEST JUMPDEST PUSH1 0x20 MUL PUSH1 0x20 ADD ADD DUP2 SWAP1 MSTORE POP DUP2 DUP1 PUSH2 0x2E1 SWAP1 PUSH2 0xB83 JUMP JUMPDEST SWAP3 POP POP JUMPDEST DUP1 DUP1 PUSH1 0x1 ADD SWAP2 POP POP PUSH2 0x121 JUMP JUMPDEST POP PUSH0 DUP2 PUSH8 0xFFFFFFFFFFFFFFFF DUP2 GT ISZERO PUSH2 0x30E JUMPI PUSH2 0x30D PUSH2 0x961 JUMP JUMPDEST JUMPDEST PUSH1 0x40 MLOAD SWAP1 DUP1 DUP3 MSTORE DUP1 PUSH1 0x20 MUL PUSH1 0x20 ADD DUP3 ADD PUSH1 0x40 MSTORE DUP1 ISZERO PUSH2 0x347 JUMPI DUP2 PUSH1 0x20 ADD JUMPDEST PUSH2 0x334 PUSH2 0x5D8 JUMP JUMPDEST DUP2 MSTORE PUSH1 0x20 ADD SWAP1 PUSH1 0x1 SWAP1 SUB SWAP1 DUP2 PUSH2 0x32C JUMPI SWAP1 POP JUMPDEST POP SWAP1 POP PUSH0 JUMPDEST DUP3 DUP2 LT ISZERO PUSH2 0x39A JUMPI DUP4 DUP2 DUP2 MLOAD DUP2 LT PUSH2 0x367 JUMPI PUSH2 0x366 PUSH2 0xACC JUMP JUMPDEST JUMPDEST PUSH1 0x20 MUL PUSH1 0x20 ADD ADD MLOAD DUP3 DUP3 DUP2 MLOAD DUP2 LT PUSH2 0x382 JUMPI PUSH2 0x381 PUSH2 0xACC JUMP JUMPDEST JUMPDEST PUSH1 0x20 MUL PUSH1 0x20 ADD ADD DUP2 SWAP1 MSTORE POP DUP1 DUP1 PUSH1 0x1 ADD SWAP2 POP POP PUSH2 0x34C JUMP JUMPDEST POP DUP1 SWAP4 POP POP POP POP SWAP2 SWAP1 POP JUMP JUMPDEST PUSH0 DUP2 DUP2 SLOAD DUP2 LT PUSH2 0x3B4 JUMPI PUSH0 DUP1 REVERT JUMPDEST SWAP1 PUSH0 MSTORE PUSH1 0x20 PUSH0 KECCAK256 SWAP1 PUSH1 0x3 MUL ADD PUSH0 SWAP2 POP SWAP1 POP DUP1 PUSH0 ADD PUSH0 SWAP1 SLOAD SWAP1 PUSH2 0x100 EXP SWAP1 DIV PUSH20 0xFFFFFFFFFFFFFFFFFFFFFFFFFFFFFFFFFFFFFFFF AND SWAP1 DUP1 PUSH1 0x1 ADD DUP1 SLOAD PUSH2 0x3F8 SWAP1 PUSH2 0xB26 JUMP JUMPDEST DUP1 PUSH1 0x1F ADD PUSH1 0x20 DUP1 SWAP2 DIV MUL PUSH1 0x20 ADD PUSH1 0x40 MLOAD SWAP1 DUP2 ADD PUSH1 0x40 MSTORE DUP1 SWAP3 SWAP2 SWAP1 DUP2 DUP2 MSTORE PUSH1 0x20 ADD DUP3 DUP1 SLOAD PUSH2 0x424 SWAP1 PUSH2 0xB26 JUMP JUMPDEST DUP1 ISZERO PUSH2 0x46F JUMPI DUP1 PUSH1 0x1F LT PUSH2 0x446 JUMPI PUSH2 0x100 DUP1 DUP4 SLOAD DIV MUL DUP4 MSTORE SWAP2 PUSH1 0x20 ADD SWAP2 PUSH2 0x46F JUMP JUMPDEST DUP3 ADD SWAP2 SWAP1 PUSH0 MSTORE PUSH1 0x20 PUSH0 KECCAK256 SWAP1 JUMPDEST DUP2 SLOAD DUP2 MSTORE SWAP1 PUSH1 0x1 ADD SWAP1 PUSH1 0x20 ADD DUP1 DUP4 GT PUSH2 0x452 JUMPI DUP3 SWAP1 SUB PUSH1 0x1F AND DUP3 ADD SWAP2 JUMPDEST POP POP POP POP POP SWAP1 DUP1 PUSH1 0x2 ADD SLOAD SWAP1 POP DUP4 JUMP JUMPDEST PUSH0 DUP2 MLOAD GT PUSH2 0x4C2 JUMPI PUSH1 0x40 MLOAD PUSH32 0x8C379A000000000000000000000000000000000000000000000000000000000 DUP2 MSTORE PUSH1 0x4 ADD PUSH2 0x4B9 SWAP1 PUSH2 0xC14 JUMP JUMPDEST PUSH1 0x40 MLOAD DUP1 SWAP2 SUB SWAP1 REVERT JUMPDEST PUSH0 PUSH1 0x40 MLOAD DUP1 PUSH1 0x60 ADD PUSH1 0x40 MSTORE DUP1 CALLER PUSH20 0xFFFFFFFFFFFFFFFFFFFFFFFFFFFFFFFFFFFFFFFF AND DUP2 MSTORE PUSH1 0x20 ADD DUP4 DUP2 MSTORE PUSH1 0x20 ADD TIMESTAMP DUP2 MSTORE POP SWAP1 POP PUSH0 DUP2 SWAP1 DUP1 PUSH1 0x1 DUP2 SLOAD ADD DUP1 DUP3 SSTORE DUP1 SWAP2 POP POP PUSH1 0x1 SWAP1 SUB SWAP1 PUSH0 MSTORE PUSH1 0x20 PUSH0 KECCAK256 SWAP1 PUSH1 0x3 MUL ADD PUSH0 SWAP1 SWAP2 SWAP1 SWAP2 SWAP1 SWAP2 POP PUSH0 DUP3 ADD MLOAD DUP2 PUSH0 ADD PUSH0 PUSH2 0x100 EXP DUP2 SLOAD DUP2 PUSH20 0xFFFFFFFFFFFFFFFFFFFFFFFFFFFFFFFFFFFFFFFF MUL NOT AND SWAP1 DUP4 PUSH20 0xFFFFFFFFFFFFFFFFFFFFFFFFFFFFFFFFFFFFFFFF AND MUL OR SWAP1 SSTORE POP PUSH1 0x20 DUP3 ADD MLOAD DUP2 PUSH1 0x1 ADD SWAP1 DUP2 PUSH2 0x577 SWAP2 SWAP1 PUSH2 0xDCF JUMP JUMPDEST POP PUSH1 0x40 DUP3 ADD MLOAD DUP2 PUSH1 0x2 ADD SSTORE POP POP CALLER PUSH20 0xFFFFFFFFFFFFFFFFFFFFFFFFFFFFFFFFFFFFFFFF AND PUSH32 0xB3125CB8396BB6A03919AD52BE03568B0B060EE1C1C5EBD50DF4059B57C7AD9D DUP4 TIMESTAMP PUSH1 0x40 MLOAD PUSH2 0x5CC SWAP3 SWAP2 SWAP1 PUSH2 0xE9E JUMP JUMPDEST PUSH1 0x40 MLOAD DUP1 SWAP2 SUB SWAP1 LOG2 POP POP JUMP JUMPDEST PUSH1 0x40 MLOAD DUP1 PUSH1 0x60 ADD PUSH1 0x40 MSTORE DUP1 PUSH0 PUSH20 0xFFFFFFFFFFFFFFFFFFFFFFFFFFFFFFFFFFFFFFFF AND DUP2 MSTORE PUSH1 0x20 ADD PUSH1 0x60 DUP2 MSTORE PUSH1 0x20 ADD PUSH0 DUP2 MSTORE POP SWAP1 JUMP JUMPDEST PUSH0 PUSH1 0x40 MLOAD SWAP1 POP SWAP1 JUMP JUMPDEST PUSH0 DUP1 REVERT JUMPDEST PUSH0 DUP1 REVERT JUMPDEST PUSH0 PUSH20 0xFFFFFFFFFFFFFFFFFFFFFFFFFFFFFFFFFFFFFFFF DUP3 AND SWAP1 POP SWAP2 SWAP1 POP JUMP JUMPDEST PUSH0 PUSH2 0x647 DUP3 PUSH2 0x61E JUMP JUMPDEST SWAP1 POP SWAP2 SWAP1 POP JUMP JUMPDEST PUSH2 0x657 DUP2 PUSH2 0x63D JUMP JUMPDEST DUP2 EQ PUSH2 0x661 JUMPI PUSH0 DUP1 REVERT JUMPDEST POP JUMP JUMPDEST PUSH0 DUP2 CALLDATALOAD SWAP1 POP PUSH2 0x672 DUP2 PUSH2 0x64E JUMP JUMPDEST SWAP3 SWAP2 POP POP JUMP JUMPDEST PUSH0 PUSH1 0x20 DUP3 DUP5 SUB SLT ISZERO PUSH2 0x68D JUMPI PUSH2 0x68C PUSH2 0x616 JUMP JUMPDEST JUMPDEST PUSH0 PUSH2 0x69A DUP5 DUP3 DUP6 ADD PUSH2 0x664 JUMP JUMPDEST SWAP2 POP POP SWAP3 SWAP2 POP POP JUMP JUMPDEST PUSH0 DUP2 MLOAD SWAP1 POP SWAP2 SWAP1 POP JUMP JUMPDEST PUSH0 DUP3 DUP3 MSTORE PUSH1 0x20 DUP3 ADD SWAP1 POP SWAP3 SWAP2 POP POP JUMP JUMPDEST PUSH0 DUP2 SWAP1 POP PUSH1 0x20 DUP3 ADD SWAP1 POP SWAP2 SWAP1 POP JUMP JUMPDEST PUSH2 0x6D5 DUP2 PUSH2 0x63D JUMP JUMPDEST DUP3 MSTORE POP POP JUMP JUMPDEST PUSH0 DUP2 MLOAD SWAP1 POP SWAP2 SWAP1 POP JUMP JUMPDEST PUSH0 DUP3 DUP3 MSTORE PUSH1 0x20 DUP3 ADD SWAP1 POP SWAP3 SWAP2 POP POP JUMP JUMPDEST DUP3 DUP2 DUP4 MCOPY PUSH0 DUP4 DUP4 ADD MSTORE POP POP POP JUMP JUMPDEST PUSH0 PUSH1 0x1F NOT PUSH1 0x1F DUP4 ADD AND SWAP1 POP SWAP2 SWAP1 POP JUMP JUMPDEST PUSH0 PUSH2 0x71D DUP3 PUSH2 0x6DB JUMP JUMPDEST PUSH2 0x727 DUP2 DUP6 PUSH2 0x6E5 JUMP JUMPDEST SWAP4 POP PUSH2 0x737 DUP2 DUP6 PUSH1 0x20 DUP7 ADD PUSH2 0x6F5 JUMP JUMPDEST PUSH2 0x740 DUP2 PUSH2 0x703 JUMP JUMPDEST DUP5 ADD SWAP2 POP POP SWAP3 SWAP2 POP POP JUMP JUMPDEST PUSH0 DUP2 SWAP1 POP SWAP2 SWAP1 POP JUMP JUMPDEST PUSH2 0x75D DUP2 PUSH2 0x74B JUMP JUMPDEST DUP3 MSTORE POP POP JUMP JUMPDEST PUSH0 PUSH1 0x60 DUP4 ADD PUSH0 DUP4 ADD MLOAD PUSH2 0x778 PUSH0 DUP7 ADD DUP3 PUSH2 0x6CC JUMP JUMPDEST POP PUSH1 0x20 DUP4 ADD MLOAD DUP5 DUP3 SUB PUSH1 0x20 DUP7 ADD MSTORE PUSH2 0x790 DUP3 DUP3 PUSH2 0x713 JUMP JUMPDEST SWAP2 POP POP PUSH1 0x40 DUP4 ADD MLOAD PUSH2 0x7A5 PUSH1 0x40 DUP7 ADD DUP3 PUSH2 0x754 JUMP JUMPDEST POP DUP1 SWAP2 POP POP SWAP3 SWAP2 POP POP JUMP JUMPDEST PUSH0 PUSH2 0x7BB DUP4 DUP4 PUSH2 0x763 JUMP JUMPDEST SWAP1 POP SWAP3 SWAP2 POP POP JUMP JUMPDEST PUSH0 PUSH1 0x20 DUP3 ADD SWAP1 POP SWAP2 SWAP1 POP JUMP JUMPDEST PUSH0 PUSH2 0x7D9 DUP3 PUSH2 0x6A3 JUMP JUMPDEST PUSH2 0x7E3 DUP2 DUP6 PUSH2 0x6AD JUMP JUMPDEST SWAP4 POP DUP4 PUSH1 0x20 DUP3 MUL DUP6 ADD PUSH2 0x7F5 DUP6 PUSH2 0x6BD JUMP JUMPDEST DUP1 PUSH0 JUMPDEST DUP6 DUP2 LT ISZERO PUSH2 0x830 JUMPI DUP5 DUP5 SUB DUP10 MSTORE DUP2 MLOAD PUSH2 0x811 DUP6 DUP3 PUSH2 0x7B0 JUMP JUMPDEST SWAP5 POP PUSH2 0x81C DUP4 PUSH2 0x7C3 JUMP JUMPDEST SWAP3 POP PUSH1 0x20 DUP11 ADD SWAP10 POP POP PUSH1 0x1 DUP2 ADD SWAP1 POP PUSH2 0x7F8 JUMP JUMPDEST POP DUP3 SWAP8 POP DUP8 SWAP6 POP POP POP POP POP POP SWAP3 SWAP2 POP POP JUMP JUMPDEST PUSH0 PUSH1 0x20 DUP3 ADD SWAP1 POP DUP2 DUP2 SUB PUSH0 DUP4 ADD MSTORE PUSH2 0x85A DUP2 DUP5 PUSH2 0x7CF JUMP JUMPDEST SWAP1 POP SWAP3 SWAP2 POP POP JUMP JUMPDEST PUSH2 0x86B DUP2 PUSH2 0x74B JUMP JUMPDEST DUP2 EQ PUSH2 0x875 JUMPI PUSH0 DUP1 REVERT JUMPDEST POP JUMP JUMPDEST PUSH0 DUP2 CALLDATALOAD SWAP1 POP PUSH2 0x886 DUP2 PUSH2 0x862 JUMP JUMPDEST SWAP3 SWAP2 POP POP JUMP JUMPDEST PUSH0 PUSH1 0x20 DUP3 DUP5 SUB SLT ISZERO PUSH2 0x8A1 JUMPI PUSH2 0x8A0 PUSH2 0x616 JUMP JUMPDEST JUMPDEST PUSH0 PUSH2 0x8AE DUP5 DUP3 DUP6 ADD PUSH2 0x878 JUMP JUMPDEST SWAP2 POP POP SWAP3 SWAP2 POP POP JUMP JUMPDEST PUSH2 0x8C0 DUP2 PUSH2 0x63D JUMP JUMPDEST DUP3 MSTORE POP POP JUMP JUMPDEST PUSH0 DUP3 DUP3 MSTORE PUSH1 0x20 DUP3 ADD SWAP1 POP SWAP3 SWAP2 POP POP JUMP JUMPDEST PUSH0 PUSH2 0x8E0 DUP3 PUSH2 0x6DB JUMP JUMPDEST PUSH2 0x8EA DUP2 DUP6 PUSH2 0x8C6 JUMP JUMPDEST SWAP4 POP PUSH2 0x8FA DUP2 DUP6 PUSH1 0x20 DUP7 ADD PUSH2 0x6F5 JUMP JUMPDEST PUSH2 0x903 DUP2 PUSH2 0x703 JUMP JUMPDEST DUP5 ADD SWAP2 POP POP SWAP3 SWAP2 POP POP JUMP JUMPDEST PUSH2 0x917 DUP2 PUSH2 0x74B JUMP JUMPDEST DUP3 MSTORE POP POP JUMP JUMPDEST PUSH0 PUSH1 0x60 DUP3 ADD SWAP1 POP PUSH2 0x930 PUSH0 DUP4 ADD DUP7 PUSH2 0x8B7 JUMP JUMPDEST DUP2 DUP2 SUB PUSH1 0x20 DUP4 ADD MSTORE PUSH2 0x942 DUP2 DUP6 PUSH2 0x8D6 JUMP JUMPDEST SWAP1 POP PUSH2 0x951 PUSH1 0x40 DUP4 ADD DUP5 PUSH2 0x90E JUMP JUMPDEST SWAP5 SWAP4 POP POP POP POP JUMP JUMPDEST PUSH0 DUP1 REVERT JUMPDEST PUSH0 DUP1 REVERT JUMPDEST PUSH32 0x4E487B7100000000000000000000000000000000000000000000000000000000 PUSH0 MSTORE PUSH1 0x41 PUSH1 0x4 MSTORE PUSH1 0x24 PUSH0 REVERT JUMPDEST PUSH2 0x997 DUP3 PUSH2 0x703 JUMP JUMPDEST DUP2 ADD DUP2 DUP2 LT PUSH8 0xFFFFFFFFFFFFFFFF DUP3 GT OR ISZERO PUSH2 0x9B6 JUMPI PUSH2 0x9B5 PUSH2 0x961 JUMP JUMPDEST JUMPDEST DUP1 PUSH1 0x40 MSTORE POP POP POP JUMP JUMPDEST PUSH0 PUSH2 0x9C8 PUSH2 0x60D JUMP JUMPDEST SWAP1 POP PUSH2 0x9D4 DUP3 DUP3 PUSH2 0x98E JUMP JUMPDEST SWAP2 SWAP1 POP JUMP JUMPDEST PUSH0 PUSH8 0xFFFFFFFFFFFFFFFF DUP3 GT ISZERO PUSH2 0x9F3 JUMPI PUSH2 0x9F2 PUSH2 0x961 JUMP JUMPDEST JUMPDEST PUSH2 0x9FC DUP3 PUSH2 0x703 JUMP JUMPDEST SWAP1 POP PUSH1 0x20 DUP2 ADD SWAP1 POP SWAP2 SWAP1 POP JUMP JUMPDEST DUP3 DUP2 DUP4 CALLDATACOPY PUSH0 DUP4 DUP4 ADD MSTORE POP POP POP JUMP JUMPDEST PUSH0 PUSH2 0xA29 PUSH2 0xA24 DUP5 PUSH2 0x9D9 JUMP JUMPDEST PUSH2 0x9BF JUMP JUMPDEST SWAP1 POP DUP3 DUP2 MSTORE PUSH1 0x20 DUP2 ADD DUP5 DUP5 DUP5 ADD GT ISZERO PUSH2 0xA45 JUMPI PUSH2 0xA44 PUSH2 0x95D JUMP JUMPDEST JUMPDEST PUSH2 0xA50 DUP5 DUP3 DUP6 PUSH2 0xA09 JUMP JUMPDEST POP SWAP4 SWAP3 POP POP POP JUMP JUMPDEST PUSH0 DUP3 PUSH1 0x1F DUP4 ADD SLT PUSH2 0xA6C JUMPI PUSH2 0xA6B PUSH2 0x959 JUMP JUMPDEST JUMPDEST DUP2 CALLDATALOAD PUSH2 0xA7C DUP5 DUP3 PUSH1 0x20 DUP7 ADD PUSH2 0xA17 JUMP JUMPDEST SWAP2 POP POP SWAP3 SWAP2 POP POP JUMP JUMPDEST PUSH0 PUSH1 0x20 DUP3 DUP5 SUB SLT ISZERO PUSH2 0xA9A JUMPI PUSH2 0xA99 PUSH2 0x616 JUMP JUMPDEST JUMPDEST PUSH0 DUP3 ADD CALLDATALOAD PUSH8 0xFFFFFFFFFFFFFFFF DUP2 GT ISZERO PUSH2 0xAB7 JUMPI PUSH2 0xAB6 PUSH2 0x61A JUMP JUMPDEST JUMPDEST PUSH2 0xAC3 DUP5 DUP3 DUP6 ADD PUSH2 0xA58 JUMP JUMPDEST SWAP2 POP POP SWAP3 SWAP2 POP POP JUMP JUMPDEST PUSH32 0x4E487B7100000000000000000000000000000000000000000000000000000000 PUSH0 MSTORE PUSH1 0x32 PUSH1 0x4 MSTORE PUSH1 0x24 PUSH0 REVERT JUMPDEST PUSH32 0x4E487B7100000000000000000000000000000000000000000000000000000000 PUSH0 MSTORE PUSH1 0x22 PUSH1 0x4 MSTORE PUSH1 0x24 PUSH0 REVERT JUMPDEST PUSH0 PUSH1 0x2 DUP3 DIV SWAP1 POP PUSH1 0x1 DUP3 AND DUP1 PUSH2 0xB3D JUMPI PUSH1 0x7F DUP3 AND SWAP2 POP JUMPDEST PUSH1 0x20 DUP3 LT DUP2 SUB PUSH2 0xB50 JUMPI PUSH2 0xB4F PUSH2 0xAF9 JUMP JUMPDEST JUMPDEST POP SWAP2 SWAP1 POP JUMP JUMPDEST PUSH32 0x4E487B7100000000000000000000000000000000000000000000000000000000 PUSH0 MSTORE PUSH1 0x11 PUSH1 0x4 MSTORE PUSH1 0x24 PUSH0 REVERT JUMPDEST PUSH0 PUSH2 0xB8D DUP3 PUSH2 0x74B JUMP JUMPDEST SWAP2 POP PUSH32 0xFFFFFFFFFFFFFFFFFFFFFFFFFFFFFFFFFFFFFFFFFFFFFFFFFFFFFFFFFFFFFFFF DUP3 SUB PUSH2 0xBBF JUMPI PUSH2 0xBBE PUSH2 0xB56 JUMP JUMPDEST JUMPDEST PUSH1 0x1 DUP3 ADD SWAP1 POP SWAP2 SWAP1 POP JUMP JUMPDEST PUSH32 0x47726174697475646520656E7472792063616E6E6F7420626520656D70747900 PUSH0 DUP3 ADD MSTORE POP JUMP JUMPDEST PUSH0 PUSH2 0xBFE PUSH1 0x1F DUP4 PUSH2 0x8C6 JUMP JUMPDEST SWAP2 POP PUSH2 0xC09 DUP3 PUSH2 0xBCA JUMP JUMPDEST PUSH1 0x20 DUP3 ADD SWAP1 POP SWAP2 SWAP1 POP JUMP JUMPDEST PUSH0 PUSH1 0x20 DUP3 ADD SWAP1 POP DUP2 DUP2 SUB PUSH0 DUP4 ADD MSTORE PUSH2 0xC2B DUP2 PUSH2 0xBF2 JUMP JUMPDEST SWAP1 POP SWAP2 SWAP1 POP JUMP JUMPDEST PUSH0 DUP2 SWAP1 POP DUP2 PUSH0 MSTORE PUSH1 0x20 PUSH0 KECCAK256 SWAP1 POP SWAP2 SWAP1 POP JUMP JUMPDEST PUSH0 PUSH1 0x20 PUSH1 0x1F DUP4 ADD DIV SWAP1 POP SWAP2 SWAP1 POP JUMP JUMPDEST PUSH0 DUP3 DUP3 SHL SWAP1 POP SWAP3 SWAP2 POP POP JUMP JUMPDEST PUSH0 PUSH1 0x8 DUP4 MUL PUSH2 0xC8E PUSH32 0xFFFFFFFFFFFFFFFFFFFFFFFFFFFFFFFFFFFFFFFFFFFFFFFFFFFFFFFFFFFFFFFF DUP3 PUSH2 0xC53 JUMP JUMPDEST PUSH2 0xC98 DUP7 DUP4 PUSH2 0xC53 JUMP JUMPDEST SWAP6 POP DUP1 NOT DUP5 AND SWAP4 POP DUP1 DUP7 AND DUP5 OR SWAP3 POP POP POP SWAP4 SWAP3 POP POP POP JUMP JUMPDEST PUSH0 DUP2 SWAP1 POP SWAP2 SWAP1 POP JUMP JUMPDEST PUSH0 PUSH2 0xCD3 PUSH2 0xCCE PUSH2 0xCC9 DUP5 PUSH2 0x74B JUMP JUMPDEST PUSH2 0xCB0 JUMP JUMPDEST PUSH2 0x74B JUMP JUMPDEST SWAP1 POP SWAP2 SWAP1 POP JUMP JUMPDEST PUSH0 DUP2 SWAP1 POP SWAP2 SWAP1 POP JUMP JUMPDEST PUSH2 0xCEC DUP4 PUSH2 0xCB9 JUMP JUMPDEST PUSH2 0xD00 PUSH2 0xCF8 DUP3 PUSH2 0xCDA JUMP JUMPDEST DUP5 DUP5 SLOAD PUSH2 0xC5F JUMP JUMPDEST DUP3 SSTORE POP POP POP POP JUMP JUMPDEST PUSH0 SWAP1 JUMP JUMPDEST PUSH2 0xD14 PUSH2 0xD08 JUMP JUMPDEST PUSH2 0xD1F DUP2 DUP5 DUP5 PUSH2 0xCE3 JUMP JUMPDEST POP POP POP JUMP JUMPDEST JUMPDEST DUP2 DUP2 LT ISZERO PUSH2 0xD42 JUMPI PUSH2 0xD37 PUSH0 DUP3 PUSH2 0xD0C JUMP JUMPDEST PUSH1 0x1 DUP2 ADD SWAP1 POP PUSH2 0xD25 JUMP JUMPDEST POP POP JUMP JUMPDEST PUSH1 0x1F DUP3 GT ISZERO PUSH2 0xD87 JUMPI PUSH2 0xD58 DUP2 PUSH2 0xC32 JUMP JUMPDEST PUSH2 0xD61 DUP5 PUSH2 0xC44 JUMP JUMPDEST DUP2 ADD PUSH1 0x20 DUP6 LT ISZERO PUSH2 0xD70 JUMPI DUP2 SWAP1 POP JUMPDEST PUSH2 0xD84 PUSH2 0xD7C DUP6 PUSH2 0xC44 JUMP JUMPDEST DUP4 ADD DUP3 PUSH2 0xD24 JUMP JUMPDEST POP POP JUMPDEST POP POP POP JUMP JUMPDEST PUSH0 DUP3 DUP3 SHR SWAP1 POP SWAP3 SWAP2 POP POP JUMP JUMPDEST PUSH0 PUSH2 0xDA7 PUSH0 NOT DUP5 PUSH1 0x8 MUL PUSH2 0xD8C JUMP JUMPDEST NOT DUP1 DUP4 AND SWAP2 POP POP SWAP3 SWAP2 POP POP JUMP JUMPDEST PUSH0 PUSH2 0xDBF DUP4 DUP4 PUSH2 0xD98 JUMP JUMPDEST SWAP2 POP DUP3 PUSH1 0x2 MUL DUP3 OR SWAP1 POP SWAP3 SWAP2 POP POP JUMP JUMPDEST PUSH2 0xDD8 DUP3 PUSH2 0x6DB JUMP JUMPDEST PUSH8 0xFFFFFFFFFFFFFFFF DUP2 GT ISZERO PUSH2 0xDF1 JUMPI PUSH2 0xDF0 PUSH2 0x961 JUMP JUMPDEST JUMPDEST PUSH2 0xDFB DUP3 SLOAD PUSH2 0xB26 JUMP JUMPDEST PUSH2 0xE06 DUP3 DUP3 DUP6 PUSH2 0xD46 JUMP JUMPDEST PUSH0 PUSH1 0x20 SWAP1 POP PUSH1 0x1F DUP4 GT PUSH1 0x1 DUP2 EQ PUSH2 0xE37 JUMPI PUSH0 DUP5 ISZERO PUSH2 0xE25 JUMPI DUP3 DUP8 ADD MLOAD SWAP1 POP JUMPDEST PUSH2 0xE2F DUP6 DUP3 PUSH2 0xDB4 JUMP JUMPDEST DUP7 SSTORE POP PUSH2 0xE96 JUMP JUMPDEST PUSH1 0x1F NOT DUP5 AND PUSH2 0xE45 DUP7 PUSH2 0xC32 JUMP JUMPDEST PUSH0 JUMPDEST DUP3 DUP2 LT ISZERO PUSH2 0xE6C JUMPI DUP5 DUP10 ADD MLOAD DUP3 SSTORE PUSH1 0x1 DUP3 ADD SWAP2 POP PUSH1 0x20 DUP6 ADD SWAP5 POP PUSH1 0x20 DUP2 ADD SWAP1 POP PUSH2 0xE47 JUMP JUMPDEST DUP7 DUP4 LT ISZERO PUSH2 0xE89 JUMPI DUP5 DUP10 ADD MLOAD PUSH2 0xE85 PUSH1 0x1F DUP10 AND DUP3 PUSH2 0xD98 JUMP JUMPDEST DUP4 SSTORE POP JUMPDEST PUSH1 0x1 PUSH1 0x2 DUP9 MUL ADD DUP9 SSTORE POP POP POP JUMPDEST POP POP POP POP POP POP JUMP JUMPDEST PUSH0 PUSH1 0x40 DUP3 ADD SWAP1 POP DUP2 DUP2 SUB PUSH0 DUP4 ADD MSTORE PUSH2 0xEB6 DUP2 DUP6 PUSH2 0x8D6 JUMP JUMPDEST SWAP1 POP PUSH2 0xEC5 PUSH1 0x20 DUP4 ADD DUP5 PUSH2 0x90E JUMP JUMPDEST SWAP4 SWAP3 POP POP POP JUMP INVALID LOG2 PUSH5 0x6970667358 0x22 SLT KECCAK256 0x29 DUP10 NOT 0xAF DUP12 BLOBHASH PUSH6 0x28406E582AE8 0xFC 0xBA SWAP14 DUP15 SIGNEXTEND 0x2E LT PUSH0 BYTE 0x4F EQ 0xFB 0xFB CALLCODE LOG3 0xAB PUSH8 0x35FF64736F6C6343 STOP ADDMOD BYTE STOP CALLER "
				},
				"gasEstimates": {
					"creation": {
						"codeDepositCost": "768400",
						"executionCost": "803",
						"totalCost": "769203"
					},
					"external": {
						"entries(uint256)": "infinite",
						"getEntriesByAuthor(address)": "infinite",
						"recordGratitude(string)": "infinite"
					}
				},
				"methodIdentifiers": {
					"entries(uint256)": "b30906d4",
					"getEntriesByAuthor(address)": "58bc35e6",
					"recordGratitude(string)": "bb87f9cd"
				}
			},
			"storageLayout": {
				"storage": [
					{
						"astId": 12,
						"contract": "project-01/contracts/contract.sol:GratitudeJournal",
						"label": "entries",
						"offset": 0,
						"slot": "0",
						"type": "t_array(t_struct(GratitudeEntry)8_storage)dyn_storage"
					}
				],
				"types": {
					"t_address": {
						"encoding": "inplace",
						"label": "address",
						"numberOfBytes": "20"
					},
					"t_array(t_struct(GratitudeEntry)8_storage)dyn_storage": {
						"base": "t_struct(GratitudeEntry)8_storage",
						"encoding": "dynamic_array",
						"label": "struct GratitudeJournal.GratitudeEntry[]",
						"numberOfBytes": "32"
					},
					"t_string_storage": {
						"encoding": "bytes",
						"label": "string",
						"numberOfBytes": "32"
					},
					"t_struct(GratitudeEntry)8_storage": {
						"encoding": "inplace",
						"label": "struct GratitudeJournal.GratitudeEntry",
						"members": [
							{
								"astId": 3,
								"contract": "project-01/contracts/contract.sol:GratitudeJournal",
								"label": "author",
								"offset": 0,
								"slot": "0",
								"type": "t_address"
							},
							{
								"astId": 5,
								"contract": "project-01/contracts/contract.sol:GratitudeJournal",
								"label": "entry",
								"offset": 0,
								"slot": "1",
								"type": "t_string_storage"
							},
							{
								"astId": 7,
								"contract": "project-01/contracts/contract.sol:GratitudeJournal",
								"label": "timestamp",
								"offset": 0,
								"slot": "2",
								"type": "t_uint256"
							}
						],
						"numberOfBytes": "96"
					},
					"t_uint256": {
						"encoding": "inplace",
						"label": "uint256",
						"numberOfBytes": "32"
					}
				}
			},
			"userdoc": {
				"kind": "user",
				"methods": {},
				"version": 1
			}
		}
	}
}